:400000000206B9008F828E83E0540100000070F82278FFE4F6D8FD020717BB010689828A83E0225002E722BBFE02E32289828A83E49322BB010689828A83F0225002F722D9
:40004000BBFE01F322C5F0F8A3E028F0C5F0F8E582158270021583E038F022EF2BFFEE3AFEED39FDEC38FC22E88FF0A4CC8BF0A42CFCE98EF0A42CFC8AF0EDA42CFCEA8EEA
:40008000F0A4CDA8F08BF0A42DCC3825F0FDE98FF0A42CCD35F0FCEB8EF0A4FEA9F0EB8FF0A4CFC5F02ECD39FEE43CFCEAA42DCE35F0FDE43CFC2275F008758200EF2FFFD1
:4000C000EE33FECD33CDCC33CCC58233C5829BED9AEC99E58298400CF582EE9BFEED9AFDEC99FC0FD5F0D6E4CEFBE4CDFAE4CCF9A88222B800C1B90059BA002DEC8BF0843F
:40010000CFCECDFCE5F0CBF97818EF2FFFEE33FEED33FDEC33FCEB33FB10D703994004EB99FB0FD8E5E4F9FA227818EF2FFFEE33FEED33FDEC33FCC933C910D7059BE99AC5
:400140004007EC9BFCE99AF90FD8E0E4C9FAE4CCFB2275F010EF2FFFEE33FEED33FDCC33CCC833C810D7079BEC9AE899400AED9BFDEC9AFCE899F80FD5F0DAE4CDFBE4CC3E
:40018000FAE4C8F922EF4BFFEE4AFEED49FDEC48FC22EB9FF5F0EA9E42F0E99D42F0E89C45F022E8600FECC313FCED13FDEE13FEEF13FFD8F122E8600FEFC333FFEE33FE77
:4001C000ED33FDEC33FCD8F122BB010789828A830202035005E9F80202BCBBFE05E9F80202C889828A830202D4BB010789828A8302021B5005E9F80202E4BBFE05E9F802F0
:4002000002F022E0FCA3E0FDA3E0FEA3E0FF22E0F8A3E0F9A3E0FAA3E0FB22ECF0A3EDF0A3EEF0A3EFF022E0FBA3E0FAA3E0F922EBF0A3EAF0A3E9F022E493FB740193FAD7
:40024000740293F922D083D082F8E4937012740193700DA3A393F8740193F5828883E4737402936860EFA3A3A380DFE50C2582F582E50B3583F583B50B0485820C2210AF9E
:400280000685820CF50B2285820CF50BD2AF22EC8EF0A4CCC5F0CCCDF8EFA4CEC5F02DFDE43CFCE8A42EC8C5F03DFDE43CFCEFA4FFE5F028FEE43DFDE43CFC22E6FC08E68B
:4002C000FD08E6FE08E6FF22E2FC08E2FD08E2FE08E2FF22E493FC740193FD740293FE740393FF22ECF608EDF608EEF608EFF622ECF208EDF208EEF208EFF2227B007A46E9
:4003000079E8120B09EF4405FD7B007A4679E8120B15750A00E50AC39409503AAF0AEF75F005A4243EF582E4340BF583AF82AE838E088F09AE08AF098F828E83120239AE96
:4003400008AF098F828E83740393FC740493FD120A06050A80BF7B087A0079001209667B017A507903120B09EF4402FD7B017A507903120B157B017A507913120B09EF44ED
:4003800002FD7B017A507913120B159043A0E0FFEF4440FF9043A0EFF09043C2E0FFEF4410FF9043C2EFF07B087A007998C003C002C0017B007A5179F0900057120230D0FC
:4003C00001D002D0037F0A7E001208717B087A0079A4C003C002C0017B007A517912900057120230D001D002D0037F087E001208717B087A0079ACC003C002C0017B007A06
:40040000517932900057120230D001D002D0037F087E001208717B087A0079B4C003C002C0017B007A517960900057120230D001D002D0037F0A7E001208719044F4740190
:40044000F0904322E0FFEF4408FF904322EFF09046ECE0FFEFC394055006904689743AF09048007431F01205B590480074B1F012083B7B007A4379A0C003C002C0017B00DE
:400480007A4379B0900057120230D001D002D0037F0E7E001208719043B0E0FFEF54FDFFEFF022D2AF9044F474FDF09000617406F0120938120A7990005FE0FFEFC394017B
:4004C0004025120A8CEF701F90005FE4F0120AFD9000617406F07F001208A57F001209087F001208D78022120A37EF701C90005FE0FFEF70149000627401F01207F4900045
:400500005FE004F0900061E4F0900061E0FFEF120245052800053B01055602056903058404059705000004B77F011208A57F001208D79000617401F00204B7900060E0FFF5
:40054000EF640860030204B7900060E4F09000617402F00204B77F001208A57F011209089000617403F00204B7900060E0FFEF640260030204B7900060E4F09000617404C1
:40058000F00204B77F001209087F011208D79000617405F00204B7900060E0FFEF640460030204B7900060E4F0900061E4F00204B70204B7227B007A4079807DF47C2D129F
:4005C0000AE19040827419F09043007402F09040007408F09042007403F07B0C7A017908120B099046A1EFF07B007A4279227D087C00120AE17B007A4279207D517C121286
:400600000AE1900056E4F07F197E007D007C0090005212021B900052120203D3EF9400EE9400404E900056E0FFEF64036044904225E0FFEF5401FF7E00900056E0FEEE2569
:40064000E0FEEE4FFFEF5403FF900056EFF07FE07E017D007C001208009000521202037BFF7AFF79FF78FF12005B90005212021B80A3900052120203EF4E70057F03120AA0
:400680009F7B007A4079047D007C01120AE19040047407F0904006E4F09040087448F0904004E4F09040017402F09043A2E0FFEF4401FF9043A2EFF0227593007800758331
:4006C000467582E8E04401F0009046ECE0F99046FAE0FAB903225420B40012B8001AEA901FFFF07401901FFEF09046F6F0901FFEE06005901FFFE0FA90480074C0F07581CF
:400700000C90000078007920E4F0A3D8FCD9FAEA90004DF0020011750B1F750CFD1207A61202FC0207610204A3E493A3F8E493A34003F68001F208DFF48029E493A3F85463
:4007400007240CC8C333C4540F4420C8834004F456800146F6DFE4800B0102040810204080900993E47E019360BCA3FF543F30E509541FFEE493A360010ECF54C025E06043
:40078000A840B8E493A3FAE493A3F8E493A3C8C582C8CAC583CAF0A3C8C582C8CAC583CADFE9DEE780BE900052E4F0900052E0FFEFD3941F503D900052E0FF7E02EF8EF06E
:4007C000A4FFAEF0EF2400FFEE3444FEAA06A9077B01C003C002C0017BFF7A0B793BAC02AD01D001D002D003120AE3900052E004F080B82290647BE0FFEF4480FFEFF0228B
:40080000EC4D4E700D78FCEF24E950032840FD2200007BF178DA0000EF28FF78FFEE38FEED38FDEC38FC50E7EF2BFFEE38FEED38FDEC38FC40F222050203047B0C7A017926
:40084000CF120B09900052EFF0900052E0FFEF5407FF90586EEFF0900052E0FFEFC4540FFFEF540FFF90586FEFF09058767444F022758600EF4E6027EF60010E7593009049
:400880000057E0F595A3E0F585A3E0F5848B938A838982E0A30586F0A31586DFF6DEF4E4F593F59522900052EFF0905130E0FFEF547FFF900053EFF0900052E0FFEFC43372
:4008C00033335480FFEF5480FF900053E0FEEF4EFF905130EFF022900052EFF0905130E0FFEF54F7FF900053EFF0900052E0FFEF33333354F8FFEF5408FF900053E0FEEFB4
:400900004EFF905130EFF022900052EFF0905130E0FFEF54DFFF900053EFF0900052E0FFEFC43354E0FFEF5420FF900053E0FEEF4EFF905130EFF0227FFE120AC17FFE1290
:400940000AD1120A64900052EFF090649BE0FFEF4410FFEFF0900052E0FF120A1F120AF07F00120AB122ACEAADA08B938A838982E0F96017A3E0F5EAA3E0F5A0A3E060F49C
:40098000FAA3E0F8A3E0F2DAF8D9E98DA08CEAE4F5932241005F0041006200440049016E360044004400005DC04100481844004E2EE0000043005A0000004100630000C02C
:4009C000E0C083C082C085C084C086758600C093759300900060E004F0D093D086D084D085D082D083D0E032900052EEF0A3EFF07B027A447900900052E0FEA3E0FFAD07D4
:400A0000AC06120AE322EC4D6011ED60010C8B938A838982E4F0A3DDFCDCFA75930022EF54016004D2AF8002C2AFEF5402FF9044F4E054FD4FF0229051F1E0FFEF5420FF8C
:400A40007E00EF7805CEC313CE13D8F9FF22900052EFF0900052E0FFEFC43354E0FF904480EFF0229044F4E0F84402F0E85402FF10AF012274014FFF22120B287E097FBF41
:400A80001209E87F07120A4E120B2122905161E0FFEF5402FF7E00EEC313FEEF13FF22900057EFF0900057E0FF900057EFF080FE22900053EFF0900053E0FF90648BEFF047
:400AC00022900053EFF0900053E0FF90642BEFF022900053EFF0900053E0FF90640BEFF0228B938A838982EDF0A3ECF075930022120B2FEF30E305120B3580F42290647B46
:400B0000E0FFEF547FFFEFF0228B938A838982E0759300FF228B938A838982EDF0759300229044C07401F0229044C87401F02290646BE0FF2290644BE0FF2280FE320051B9
:400B4000000010005120001000514000200051C00010010000100001140008000140000A00014C0002000150000020000000000000000000000000000000000000000000D9
:400B80000000000000000000000000000000000000000000000000000000000000000000000000000000000000000000000000000000000000000000000000000000000035
:400BC00000000000000000000000000000000000000000000000000000000000000000000000000000000000000000000000000000000000000000000000000000000000F5
:400C000000000000000000000000000000000000000000000000000000000000000000000000000000000000000000000000000000000000000000000000000000000000B4
:400C40000000000000000000000000000000000000000000000000000000000000000000000000000000000000000000000000000000000000000000000000000000000074
:0200000480007A
:400000000B0064018B0D010701EE08010901AF20010A1D9201AE01B001B401BE01C045C5ECC602C807C9FFCAFFCBFFCF01D018D280D401D804DA04DB04DF01E040E240E42A
:4000400040E540E680E880EA80EC80EE80010B120F8017801E801F2046804D044F8157405D045E805F0176807780C210C480D080D210D6D00140023320CC10014101A72074
:40008000014201A720014302AF20EE1001500200010C010151010003200000200000000000000000000B0B000000000000A8A80000000000020000020000000000000000C1
:4000C0000000000000000000000000000000000000000000000000000000000000000000000000000000000000000000000000000000000000000000000000000000000000
:4001000000000000000000000000000000000000000000000000000000000000000000000000000000000000000000000000000000000000000000000000000000000000BF
:40014000000000000000000000000000000000000000000000000000000000000000000000000000000000000000000000000000000000000000000000000000000000007F
:40018000000000000000000000000000000000000000000000000000000000000000000000000000000000000000000000000000000000000000000000000000000000003F
:0200000490006A
:0400000000004005B7
:0200000490105A
:04000000BC90ACAF55
:0200000490303A
:02000000D8E640
:0200000490501A
:0C00000000011E02806903011E08594F18
:0200000490402A
:4000000000000000000000000000000000000000000000000000000000000000000000000000000000000000000000000000000000000000000000000000000000000000C0
:00000001FF
