:100000000207F8008F828E83E0540100000070F830
:100010002278FFE4F6D8FD020856BB010689828AE1
:1000200083E0225002E722BBFE02E32289828A8318
:10003000E49322BB010689828A83F0225002F722D0
:10004000BBFE01F322C5F0F8A3E028F0C5F0F8E507
:1000500082158270021583E038F022EF2BFFEE3A12
:10006000FEED39FDEC38FC22E88FF0A4CC8BF0A437
:100070002CFCE98EF0A42CFC8AF0EDA42CFCEA8E7A
:10008000F0A4CDA8F08BF0A42DCC3825F0FDE98F9D
:10009000F0A42CCD35F0FCEB8EF0A4FEA9F0EB8F94
:1000A000F0A4CFC5F02ECD39FEE43CFCEAA42DCE61
:1000B00035F0FDE43CFC2275F008758200EF2FFF5F
:1000C000EE33FECD33CDCC33CCC58233C5829BED30
:1000D0009AEC99E58298400CF582EE9BFEED9AFD34
:1000E000EC99FC0FD5F0D6E4CEFBE4CDFAE4CCF9E4
:1000F000A88222B800C1B90059BA002DEC8BF08457
:10010000CFCECDFCE5F0CBF97818EF2FFFEE33FE24
:10011000ED33FDEC33FCEB33FB10D703994004EBDC
:1001200099FB0FD8E5E4F9FA227818EF2FFFEE33A8
:10013000FEED33FDEC33FCC933C910D7059BE99ABA
:100140004007EC9BFCE99AF90FD8E0E4C9FAE4CC4B
:10015000FB2275F010EF2FFFEE33FEED33FDCC33B5
:10016000CCC833C810D7079BEC9AE899400AED9B9E
:10017000FDEC9AFCE899F80FD5F0DAE4CDFBE4CC7D
:10018000FAE4C8F922EF4BFFEE4AFEED49FDEC48D8
:10019000FC22EB9FF5F0EA9E42F0E99D42F0E89CDC
:1001A00045F022E8600FECC313FCED13FDEE13FEE7
:1001B000EF13FFD8F122E8600FEFC333FFEE33FEF9
:1001C000ED33FDEC33FCD8F122BB010789828A8331
:1001D0000202035005E9F80202BCBBFE05E9F80281
:1001E00002C889828A830202D4BB010789828A837A
:1001F00002021B5005E9F80202E4BBFE05E9F80221
:1002000002F022E0FCA3E0FDA3E0FEA3E0FF22E079
:10021000F8A3E0F9A3E0FAA3E0FB22ECF0A3EDF0F1
:10022000A3EEF0A3EFF022E0FBA3E0FAA3E0F922B3
:10023000EBF0A3EAF0A3E9F022E493FB740193FA54
:10024000740293F922D083D082F8E493701274017F
:1002500093700DA3A393F8740193F5828883E473DC
:100260007402936860EFA3A3A380DFE50C2582F5F9
:1002700082E50B3583F583B50B0485820C2210AF24
:100280000685820CF50B2285820CF50BD2AF22EC91
:100290008EF0A4CCC5F0CCCDF8EFA4CEC5F02DFDEA
:1002A000E43CFCE8A42EC8C5F03DFDE43CFCEFA412
:1002B000FFE5F028FEE43DFDE43CFC22E6FC08E618
:1002C000FD08E6FE08E6FF22E2FC08E2FD08E2FE89
:1002D00008E2FF22E493FC740193FD740293FE7420
:1002E0000393FF22ECF608EDF608EEF608EFF6228F
:1002F000ECF208EDF208EEF208EFF222D2AF9044F1
:10030000F474FDF0900062E4F09000607401F07FFE
:1003100001120C247F01120BC57F01120A6F7F01AD
:10032000120C81120D94120DBE900062E0FFEF12CC
:10033000024503510003A00103C10203E7030408BF
:1003400004042E05044F06047507049B08000003EF
:1003500029900060E0FFEF60157FE87E037D007C60
:10036000001208E57F01120B047F00120C2490009C
:100370005FE0FFEFB4021A90005FE4F0900061E4E8
:10038000F07F01120CDC7F00120B049000627401FC
:10039000F0900060E0FFEF70907F00120C248089E5
:1003A00090005FE0FFEF640A600302032990005FA2
:1003B000E4F09000617401F09000627408F00203B0
:1003C0002990005FE0FFEFB4021590005FE4F07F3A
:1003D00001120AD37F00120BF59000627403F07FC4
:1003E00000120BC502032990005FE0FFEF640A6072
:1003F0000302032990005FE4F09000617402F09022
:1004000000627408F002032990005FE0FFEFB4027D
:100410001590005FE4F07F011209CF7F00120B6599
:100420009000627405F07F00120A6F0203299000A9
:100430005FE0FFEF640A600302032990005FE4F0CD
:100440009000617403F09000627408F00203299038
:10045000005FE0FFEFB4021590005FE4F07F001250
:100460000AA17F01120B959000627407F07F0012C1
:100470000C8102032990005FE0FFEF640A60030231
:10048000032990005FE4F0900060E4F09000617454
:1004900004F09000627408F0020329900061E0FF0C
:1004A000EFB4012B90005FE0FFEFB4031590005F05
:1004B000E4F0900061E4F07F01120BF590006274AB
:1004C00002F07F00120CDC7F01120C240203299041
:1004D0000061E0FFEFB4022B90005FE0FFEFB40398
:1004E0001590005FE4F0900061E4F07F01120B656D
:1004F0009000627404F07F00120AD37F01120BC5D2
:10050000020329900061E0FFEFB4032B90005FE04D
:10051000FFEFB4031590005FE4F0900061E4F07F1A
:1005200001120AA19000627406F07F001209CF7FC9
:1005300001120A6F020329900061E0FFEF6404607A
:100540000302032990005FE0FFEFB4031490005F03
:10055000E4F0900061E4F07F01120B04900062E48B
:10056000F07F00120B957F01120C81020329020318
:1005700029227B007A4679E8120E3BEF4405FD7B89
:10058000007A4679E8120E47750A00E50AC3940915
:10059000503AAF0AEF75F005A42470F582E4340EEA
:1005A000F583AF82AE838E088F09AE08AF098F82C4
:1005B0008E83120239AE08AF098F828E8374039343
:1005C000FC740493FD120D4D050A80BF7B087A0070
:1005D0007900120CAF7B017A507903120E3BEF4485
:1005E00002FD7B017A507903120E477B017A507924
:1005F00013120E3BEF4402FD7B017A507913120E69
:10060000479043A0E0FFEF4440FF9043A0EFF090FD
:1006100043C2E0FFEF4410FF9043C2EFF07B087A43
:10062000007998C003C002C0017B007A5179029022
:100630000057120230D001D002D0037F087E001292
:100640000A3B7B087A0079A0C003C002C0017B008E
:100650007A517912900057120230D001D002D003A3
:100660007F087E00120A3B7B087A0079A8C003C08D
:1006700002C0017B007A517932900057120230D0CB
:1006800001D002D0037F087E00120A3B9044F4742C
:1006900001F0904322E0FFEF4408FF904322EFF087
:1006A0009046ECE0FFEFC394055006904689743AFB
:1006B000F09048007431F01206F490480074B1F0E4
:1006C0001209997B007A4379A0C003C002C0017B64
:1006D000007A4379B0900057120230D001D002D096
:1006E000037F0E7E00120A3B9043B0E0FFEF54FD03
:1006F000FFEFF0227B007A4079807DF47C2D120E92
:10070000139040827419F09043007402F0904000FE
:100710007408F09042007403F07B0C7A017908129F
:100720000E3B9046A1EFF07B007A4279227D087C57
:1007300000120E137B007A4279207D517C12120E3A
:1007400013900056E4F07F197E007D007C0090003D
:100750005212021B900052120203D3EF9400EE9447
:1007600000404E900056E0FFEF6403604490422545
:10077000E0FFEF5401FF7E00900056E0FEEE25E022
:10078000FEEE4FFFEF5403FF900056EFF07FE07E48
:10079000017D007C00120A009000521202037BFFD0
:1007A0007AFF79FF78FF12005B90005212021B80E3
:1007B000A3900052120203EF4E70057F03120DD179
:1007C0007B007A4079047D007C01120E1390400476
:1007D0007407F0904006E4F09040087448F09040B0
:1007E00004E4F09040017402F09043A2E0FFEF4473
:1007F00001FF9043A2EFF0227593007800758346C5
:100800007582E8E04401F0009046ECE0F99046FA89
:10081000E0FAB903225420B40012B8001AEA901F7B
:10082000FFF07401901FFEF09046F6F0901FFEE07E
:100830006005901FFFE0FA90480074C0F075810CCD
:1008400090000078007920E4F0A3D8FCD9FAEA906F
:10085000004DF0020011750B1F750CFD12094B12B3
:1008600005720208A00202FCE493A3F8E493A340FB
:1008700003F68001F208DFF48029E493A3F854071B
:10088000240CC8C333C4540F4420C8834004F45616
:10089000800146F6DFE4800B01020408102040804E
:1008A000900B35E47E019360BCA3FF543F30E50913
:1008B000541FFEE493A360010ECF54C025E060A84E
:1008C00040B8E493A3FAE493A3F8E493A3C8C582E1
:1008D000C8CAC583CAF0A3C8C582C8CAC583CADF4F
:1008E000E9DEE780BE90FFFC12026B12021B850B53
:1008F00083850C82120203D3EF9400EE9480402F84
:1009000090004E120203120A00850B83850C82C0F0
:1009100083C082120203EF2400FFEE3480FEED3428
:10092000FFFDEC34FFFCD082D08312021B80BF900D
:100930000044120203850B83850C8212020F120001
:1009400068120A0090000412026B22900052E4F038
:10095000900052E0FFEFD3941F503D900052E0FF13
:100960007E02EF8EF0A4FFAEF0EF2400FFEE3444E1
:10097000FEAA06A9077B01C003C002C0017BFF7A63
:100980000E796DAC02AD01D001D002D003120E156C
:10099000900052E004F080B8227B0C7A0179CF12EB
:1009A0000E3B900052EFF0900052E0FFEF5407FF33
:1009B00090586EEFF0900052E0FFEFC4540FFFEF3D
:1009C000540FFF90586FEFF09058767444F02290D7
:1009D0000052EFF0905130E0FFEF54F7FF900053DA
:1009E000EFF0900052E0FFEF33333354F8FFEF5451
:1009F00008FF900053E0FEEF4EFF905130EFF022E1
:100A0000EC4D4E700D78FCEF24E950032840FD2298
:100A100000007BF178DA0000EF28FF78FFEE38FE67
:100A2000ED38FDEC38FC50E7EF2BFFEE38FEED38EB
:100A3000FDEC38FC40F22205020304758600EF4EFF
:100A40006027EF60010E759300900057E0F595A3C5
:100A5000E0F585A3E0F5848B938A838982E0A30582
:100A600086F0A31586DFF6DEF4E4F593F595229083
:100A70000052EFF0905130E0FFEF547FFF900053B1
:100A8000EFF0900052E0FFEFC43333335480FFEFB8
:100A90005480FF900053E0FEEF4EFF905130EFF096
:100AA00022900052EFF0905100E0FFEF547FFF9052
:100AB0000053EFF0900052E0FFEFC4333333548023
:100AC000FFEF5480FF900053E0FEEF4EFF90510087
:100AD000EFF022900052EFF0905130E0FFEF54BF62
:100AE000FF900053EFF0900052E0FFEFC433335417
:100AF000C0FFEF5440FF900053E0FEEF4EFF9051D7
:100B000030EFF022900052EFF0905100E0FFEF54F0
:100B1000BFFF900053EFF0900052E0FFEFC433337B
:100B200054C0FFEF5440FF900053E0FEEF4EFF90A3
:100B30005100EFF02241006000410061004100637C
:100B400000440049016E360044004400005DC0418D
:100B500000481844004E2EE0000043005A000000F8
:100B60004100640000900052EFF0905130E0FFEF40
:100B700054DFFF900053EFF0900052E0FFEFC433DA
:100B800054E0FFEF5420FF900053E0FEEF4EFF9043
:100B90005130EFF022900052EFF0905100E0FFEF63
:100BA00054DFFF900053EFF0900052E0FFEFC433AA
:100BB00054E0FFEF5420FF900053E0FEEF4EFF9013
:100BC0005100EFF022900052EFF0905130E0FFEF33
:100BD00054FBFF900053EFF0900052E0FFEF25E050
:100BE00025E0FFEF5404FF900053E0FEEF4EFF902E
:100BF0005130EFF022900052EFF0905130E0FFEFD3
:100C000054EFFF900053EFF0900052E0FFEFC45418
:100C1000F0FFEF5410FF900053E0FEEF4EFF9051B5
:100C200030EFF022900052EFF0905100E0FFEF54CF
:100C3000EFFF900053EFF0900052E0FFEFC454F04C
:100C4000FFEF5410FF900053E0FEEF4EFF90510075
:100C5000EFF0227FFE120DF37FFE120E03120DA99C
:100C6000900052EFF090649BE0FFEF4410FFEFF034
:100C7000900052E0FF120D66120E227F00120DE36B
:100C800022900052EFF0905130E0FFEF54FDFF90C2
:100C90000053EFF0900052E0FFEF25E0FFEF540229
:100CA000FF900053E0FEEF4EFF905130EFF022AC8A
:100CB000EAADA08B938A838982E0F96017A3E0F5FF
:100CC000EAA3E0F5A0A3E060F4FAA3E0F8A3E0F261
:100CD000DAF8D9E98DA08CEAE4F59322900052EF7E
:100CE000F0905130E0FFEF54FEFF900053EFF09092
:100CF0000052E0FFEF5401FF900053E0FEEF4EFF83
:100D0000905130EFF022C0E0C083C082C085C08423
:100D1000C086758600C09375930090005FE004F074
:100D2000D093D086D084D085D082D083D0E032904A
:100D30000052EEF0A3EFF07B027A4479009000526B
:100D4000E0FEA3E0FFAD07AC06120E1522EC4D60ED
:100D500011ED60010C8B938A838982E4F0A3DDFCA2
:100D6000DCFA75930022EF54016004D2AF8002C216
:100D7000AFEF5402FF9044F4E054FD4FF022900096
:100D800052EFF0900052E0FFEFC43354E0FF904484
:100D900080EFF022900063E0FFEF7009120C539097
:100DA00000637401F0120E2F229044F4E0F8440224
:100DB000F0E85402FF10AF012274014FFF22120E1F
:100DC0005A7E0D7F06120D2F7F07120D7E120E53D5
:100DD00022900057EFF0900057E0FF900057EFF09F
:100DE00080FE22900053EFF0900053E0FF90648B60
:100DF000EFF022900053EFF0900053E0FF90642B4F
:100E0000EFF022900053EFF0900053E0FF90640B5E
:100E1000EFF0228B938A838982EDF0A3ECF0759337
:100E20000022120E61EF30E305120E6780F422906B
:100E3000647BE0FFEF4480FFEFF0228B938A83898D
:100E400082E0759300FF228B938A838982EDF0758F
:100E50009300229044C07401F0229044C87401F0C1
:100E60002290646BE0FF2290644BE0FF2280FE3210
:100E7000005120001000514000300051C00010000F
:100E800051F00010010000100001140008000140A2
:0D0E9000000A00014C00020001500000208B
:00000001FF
