:10000000021038008F828E83E0540100000070F8E7
:100010002278FFE4F6D8FD02109690004FE0FFEF43
:1000200012078C003C0000720100920200CA03001B
:10003000F704012805014E060000017B90005CE0FA
:10004000FFEF6402600302017B90005AE0FFEF6063
:100050000302017B7F001219D6900048E4F07F0173
:100060001218F19000547401F090004F7401F002E6
:10007000017B90005CE0FFEF600302017B90005C7D
:100080007402F090005A7401F090004F7402F00274
:10009000017B90005CE0FFEF6402600302017B9053
:1000A000005AE0FFEF6401600302017B7F01121838
:1000B000019000457401F07F001218F1900054E4A3
:1000C000F090004F7403F002017B90005CE0FFEFC2
:1000D000600302017B90005AE0FFEF6401600302BD
:1000E000017B90005C740AF090005A7402F090005A
:1000F0004F7404F002017B90005CE0FFEF640A7033
:100100007A90005AE0FFEF640270707F011219D6F6
:100110009000487401F07F00121801900045E4F04F
:1001200090004F7405F0805390005CE0FFEF704B3F
:1001300090005AE0FFEF6402704190005C742CF074
:1001400090005A7403F090004F7406F0802D9000D8
:100150005AE0FFEFB4032490005CE0FFEFB42C1BE7
:100160007F001219D6900048E4F07F011218F19038
:1001700000547401F090004F7401F0900055E0FFBE
:10018000EF12078C019D0001BE0101DE020209038E
:10019000023604026705028D06000002BA90006173
:1001A000E0FFEF641060030202BA900060E0FFEF2E
:1001B00060030202BA9000557401F00202BA900086
:1001C00061E0FFEF60030202BA9000617402F090F8
:1001D00000607401F09000557402F00202BA9000C1
:1001E00061E0FFEF640260030202BA7F001218921E
:1001F000900057E4F07F011218C29000497401F09A
:100200009000557403F00202BA900061E0FFEF60C5
:10021000030202BA900060E0FFEF64016003020293
:10022000BA900061740AF09000607402F09000557A
:100230007404F00202BA900061E0FFEF640A707A81
:10024000900060E0FFEF640270707F011217D090A1
:10025000004B7401F07F001218C2900049E4F09046
:1002600000557405F08053900061E0FFEF704B90F3
:100270000060E0FFEF64027041900061742CF09028
:1002800000607403F09000557406F0802D900060BB
:10029000E0FFEFB40324900061E0FFEFB42C1B7F7C
:1002A000001217D090004BE4F07F011218929000DA
:1002B000577401F09000557401F090004EE0FFEF8C
:1002C00012078C02DC0002FD01031D020348030338
:1002D000750403A60503CC06000003F990005BE05B
:1002E000FFEF641E60030203F9900059E0FFEF6026
:1002F000030203F990004E7401F00203F990005BD1
:10030000E0FFEF60030203F990005B7402F09000DD
:10031000597401F090004E7402F00203F990005BF2
:10032000E0FFEF640260030203F97F0012173B90C5
:100330000053E4F07F011218329000447401F090F1
:10034000004E7403F00203F990005BE0FFEF6003DE
:100350000203F9900059E0FFEF640160030203F922
:1003600090005B740AF09000597402F090004E7493
:1003700004F00203F990005BE0FFEF640A707A90EA
:100380000059E0FFEF640270707F0112179F900028
:10039000477401F07F00121832900044E4F090009E
:1003A0004E7405F0805390005BE0FFEF704B9000BF
:1003B00059E0FFEF6402704190005B742CF09000F4
:1003C000597403F090004E7406F0802D900059E0AF
:1003D000FFEFB4032490005BE0FFEFB42C1B7F0021
:1003E00012179F900047E4F07F0112173B900053D3
:1003F0007401F090004E7401F0900051E0FFEF1294
:10040000078C041B00043C01045C0204870304B451
:100410000404E505050B060000053890005FE0FFC9
:10042000EF642C600302053890005EE0FFEF60038C
:100430000205389000517401F002053890005FE029
:10044000FFEF600302053890005F7402F090005ED9
:100450007401F09000517402F002053890005FE0E2
:10046000FFEF640260030205387F0012194E90000E
:1004700056E4F07F0112176D9000467401F0900071
:10048000517403F002053890005FE0FFEF60030253
:10049000053890005EE0FFEF6401600302053890CC
:1004A000005F740AF090005E7402F09000517404D2
:1004B000F002053890005FE0FFEF640A707A900068
:1004C0005EE0FFEF640270707F0112186290004AD4
:1004D0007401F07F0012176D900046E4F090005117
:1004E0007405F0805390005FE0FFEF704B90005E6A
:1004F000E0FFEF6402704190005F742CF090005EAA
:100500007403F09000517406F0802D90005EE0FFBF
:10051000EFB4032490005FE0FFEFB42C1B7F0012C8
:10052000186290004AE4F07F0112194E9000567450
:1005300001F09000517401F0900043E0FFEF601D66
:10054000900043E4F090005CE014F0900061E0144F
:10055000F090005BE014F090005FE014F0120843AC
:1005600022BB010689828A83E0225002E722BBFE79
:1005700002E32289828A83E49322BB010689828A6C
:1005800083F0225002F722BBFE01F322C5F0F8A34C
:10059000E028F0C5F0F8E582158270021583E03896
:1005A000F022EF2BFFEE3AFEED39FDEC38FC22E8AD
:1005B0008FF0A4CC8BF0A42CFCE98EF0A42CFC8A48
:1005C000F0EDA42CFCEA8EF0A4CDA8F08BF0A42DC5
:1005D000CC3825F0FDE98FF0A42CCD35F0FCEB8E66
:1005E000F0A4FEA9F0EB8FF0A4CFC5F02ECD39FE1C
:1005F000E43CFCEAA42DCE35F0FDE43CFC2275F091
:1006000008758200EF2FFFEE33FECD33CDCC33CC17
:10061000C58233C5829BED9AEC99E58298400CF532
:1006200082EE9BFEED9AFDEC99FC0FD5F0D6E4CE60
:10063000FBE4CDFAE4CCF9A88222B800C1B9005994
:10064000BA002DEC8BF084CFCECDFCE5F0CBF97861
:1006500018EF2FFFEE33FEED33FDEC33FCEB33FBF5
:1006600010D703994004EB99FB0FD8E5E4F9FA227F
:100670007818EF2FFFEE33FEED33FDEC33FCC9337A
:10068000C910D7059BE99A4007EC9BFCE99AF90F42
:10069000D8E0E4C9FAE4CCFB2275F010EF2FFFEEAE
:1006A00033FEED33FDCC33CCC833C810D7079BECF9
:1006B0009AE899400AED9BFDEC9AFCE899F80FD571
:1006C000F0DAE4CDFBE4CCFAE4C8F922EF4BFFEE1C
:1006D0004AFEED49FDEC48FC22EB9FF5F0EA9E4214
:1006E000F0E99D42F0E89C45F022E8600FECC3136E
:1006F000FCED13FDEE13FEEF13FFD8F122E8600FBF
:10070000EFC333FFEE33FEED33FDEC33FCD8F122C3
:10071000BB010789828A8302074A5005E9F802086B
:1007200003BBFE05E9F802080F89828A8302081BD1
:10073000BB010789828A830207625005E9F8020833
:100740002BBBFE05E9F802083722E0FCA3E0FDA37D
:10075000E0FEA3E0FF22E0F8A3E0F9A3E0FAA3E0C3
:10076000FB22ECF0A3EDF0A3EEF0A3EFF022E0FB10
:10077000A3E0FAA3E0F922EBF0A3EAF0A3E9F02268
:10078000E493FB740193FA740293F922D083D0822C
:10079000F8E4937012740193700DA3A393F874019D
:1007A00093F5828883E4737402936860EFA3A3A334
:1007B00080DFE50C2582F582E50B3583F583B50BEB
:1007C0000485820C2210AF0685820CF50B228582EF
:1007D0000CF50BD2AF22EC8EF0A4CCC5F0CCCDF84A
:1007E000EFA4CEC5F02DFDE43CFCE8A42EC8C5F076
:1007F0003DFDE43CFCEFA4FFE5F028FEE43DFDE414
:100800003CFC22E6FC08E6FD08E6FE08E6FF22E2E4
:10081000FC08E2FD08E2FE08E2FF22E493FC74011A
:1008200093FD740293FE740393FF22ECF608EDF639
:1008300008EEF608EFF622ECF208EDF208EEF20808
:10084000EFF222121CA1EF6401702F7D007F0012D5
:10085000148B7BFF7A15797E1214E27BFF7A15796F
:10086000841214E27D057F0012148B90005CE0FF7F
:100870007E00E4FCFD121125806C121AA8EF6401C1
:10088000702F7D007F0012148B7BFF7A1579871201
:1008900014E27BFF7A1579841214E27D057F001241
:1008A000148B90005CE0FF7E00E4FCFD12112580BB
:1008B00035121B7CEF6401702D7D007F0012148BBC
:1008C0007BFF7A15798D1214E27BFF7A15798412F9
:1008D00014E27D057F0012148B90005CE0FF7E0027
:1008E000E4FCFD121125121B65EF6401702F7D08D9
:1008F0007F0012148B7BFF7A1579931214E27BFF31
:100900007A1579841214E27D0D7F0012148B900009
:1009100061E0FF7E00E4FCFD121125806C121B4E8D
:10092000EF6401702F7D087F0012148B7BFF7A1516
:1009300079991214E27BFF7A1579841214E27D0D05
:100940007F0012148B900061E0FF7E00E4FCFD123A
:1009500011258035121A8EEF6401702D7D087F00FD
:1009600012148B7BFF7A15799F1214E27BFF7A15A4
:1009700079841214E27D0D7F0012148B900061E0E7
:10098000FF7E00E4FCFD121125121B20EF640170B4
:100990002F7D007F0112148B7BFF7A1579A512142D
:1009A000E27BFF7A1579841214E27D057F0112142F
:1009B0008B90005FE0FF7E00E4FCFD121125806C4F
:1009C000121C11EF6401702F7D007F0112148B7BCC
:1009D000FF7A1579AB1214E27BFF7A157984121431
:1009E000E27D057F0112148B90005FE0FF7E00E442
:1009F000FCFD1211258035121B37EF6401702D7D2F
:100A0000007F0112148B7BFF7A1579B11214E27BFF
:100A1000FF7A1579841214E27D057F0112148B9000
:100A2000005FE0FF7E00E4FCFD121125121AF2EFD8
:100A30006401702E7D087F0112148B7BFF7A15797B
:100A4000B71214E27BFF7A1579841214E27D0D7FD0
:100A50000112148B90005BE0FF7E00E4FCFD12119C
:100A60002522121ADBEF6401702E7D087F0112141B
:100A70008B7BFF7A1579BD1214E27BFF7A1579849E
:100A80001214E27D0D7F0112148B90005BE0FF7E5B
:100A900000E4FCFD12112522121B09EF6401702DE8
:100AA0007D087F0112148B7BFF7A1579C31214E243
:100AB0007BFF7A1579841214E27D0D7F0112148B6D
:100AC00090005BE0FF7E00E4FCFD121125227B001C
:100AD0007A4679E8121CB9EF4405FD7B007A467925
:100AE000E8121CC5750A00E50AC39408503AAF0A1B
:100AF000EF75F005A42403F582E4341DF583AF827D
:100B0000AE838E088F09AE08AF098F828E831207DD
:100B100080AE08AF098F828E83740393FC740493B4
:100B2000FD121AC2050A80BF7B087A0079001219EB
:100B3000A97B017A507903121CB9EF4402FD7B01B5
:100B40007A507903121CC57B017A507913121CB9B3
:100B5000EF4402FD7B017A507913121CC59043A02B
:100B6000E0FFEF4440FF9043A0EFF09043C2E0FF6E
:100B7000EF4410FF9043C2EFF07B087A0079B8C0D1
:100B800003C002C0017B007A51790290006812070D
:100B900077D001D002D0037F087E001216B47B0804
:100BA0007A0079C0C003C002C0017B007A5179127B
:100BB000900068120777D001D002D0037F087E0032
:100BC0001216B47B087A0079C8C003C002C0017B4A
:100BD000007A517922900068120777D001D002D0B4
:100BE000037F087E001216B47B087A0079D0C00318
:100BF000C002C0017B007A517932900068120777F9
:100C0000D001D002D0037F087E001216B47B087A90
:100C10000079D8C003C002C0017B007A517960908E
:100C20000068120777D001D002D0037F0A7E00123D
:100C300016B49044F47401F0904322E0FFEF4408AE
:100C4000FF904322EFF09046ECE0FFEFC394055095
:100C500006904689743AF09048007431F0120E0FF5
:100C600090480074B1F01216127B007A4379A0C04C
:100C700003C002C0017B007A4379B090006812077C
:100C800077D001D002D0037F0E7E001216B49043BD
:100C9000B0E0FFEF54FDFFEFF0227F947E017D0076
:100CA0007C0090007C120762905120E0FFEF54809E
:100CB000FFEFF0905122E0FFEF54F0FF90007BEF48
:100CC000F090007BE0FFEF440FFF905122EFF09097
:100CD0005123E0FFEF54F0FF90007BEFF090007B9A
:100CE000E0FF905123EFF0905124E0FFEF54F0FF2C
:100CF00090007BEFF090007BE0FF905124EFF090AC
:100D00005120E0FFEF54DFFFEFF0905120E0FFEFC4
:100D10004440FFEFF07F007E0012197C905120E0EC
:100D2000FFEF4410FFEFF07F017E0012197C90511D
:100D300021E0FF90007BEFF0905120E0FFEF54EFB7
:100D4000FFEFF07F007E0012197C90007BE0FFEF48
:100D50005408FF90007BEFF0905120E0FFEF44102B
:100D6000FFEFF07F017E0012197C905120E0FFEF31
:100D700054EFFFEFF090007BE0FFEF70077F0A7EFB
:100D80000012197C90007C12074A7BFF7AFF79FFE2
:100D900078FF1205A290007C12076290007BE0FFB2
:100DA000EF601290007C12074AD3EF9400EE94009B
:100DB0004003020D15905120E0FFEF54BFFFEFF00C
:100DC000905120E0FFEF5480FFEFF0905122E0FFC0
:100DD000EF54F0FFEFF0905123E0FFEF54F0FF905D
:100DE000007BEFF090007BE0FFEF440FFF9051237A
:100DF000EFF0905124E0FFEF54F0FF90007BEFF014
:100E000090007BE0FFEF440FFF905124EFF0227B36
:100E1000007A4079807DF47C2D121C799040827498
:100E200019F07B007A4079847D2F7C75121C7990B3
:100E300040867419F09043007402F09040007408EA
:100E4000F09042007403F07B0C7A017908121CB90F
:100E50009046A1EFF07B007A4279227D087C001257
:100E60001C797B007A4279207D517C12121C79908A
:100E70000067E4F07F197E007D007C009000631223
:100E8000076290006312074AD3EF9400EE9400408B
:100E90004E900067E0FFEF64036044904225E0FF5E
:100EA000EF5401FF7E00900067E0FEEE25E0FEEECD
:100EB0004FFFEF5403FF900067EFF07FE07E017D6E
:100EC000007C0012170090006312074A7BFF7AFF34
:100ED00079FF78FF1205A290006312076280A39049
:100EE000006312074AEF4E70057F03121C377B0028
:100EF0007A4079047D007C01121C799040047407CB
:100F0000F0904006E4F09040087448F0904004E40B
:100F1000F09040017402F09043A2E0FFEF4403FF21
:100F20009043A2EFF022D2AF9044F474FDF012127D
:100F300073121BBF121BFE121C24121BD4900062E2
:100F4000E0FFEF7003021016900062E4F0121CED57
:100F500090005DE0FFEF703190004FE0FF90004D9A
:100F6000EFF0900055E0FF900052EFF090004EE05F
:100F7000FF90004CEFF0900051E0FF900050EFF038
:100F800090005D7401F002101690005DE4F0900096
:100F90004DE0FF90004FEFF0900052E0FF900055C1
:100FA000EFF090004CE0FF90004EEFF0900050E02A
:100FB000FF900051EFF0900054E0FF1218F1900004
:100FC00045E0FF121801900048E0FF1219D690008A
:100FD00057E0FF121892900049E0FF1218C29000EB
:100FE0004BE0FF1217D0900053E0FF12173B900028
:100FF00044E0FF121832900047E0FF12179F900064
:1010000056E0FF12194E900046E0FF12176D900057
:101010004AE0FF12186290005DE0FFEF70061200D8
:101020001A020F3D90005DE0FFEF64016003020FC4
:101030003D121363020F3D227593007800758346BD
:101040007582E8E04401F0009046ECE0F99046FA41
:10105000E0FAB903225420B40012B8001AEA901F33
:10106000FFF07401901FFEF09046F6F0901FFEE036
:101070006005901FFFE0FA90480074C0F075810C85
:1010800090000078007920E4F0A3D8FCD9FAEA9027
:10109000008AF0020011750B1F750CFD121530123D
:1010A0000ACE0210E0020F26E493A3F8E493A340D3
:1010B00003F68001F208DFF48029E493A3F85407D3
:1010C000240CC8C333C4540F4420C8834004F456CE
:1010D000800146F6DFE4800B010204081020408006
:1010E0009012EBE47E019360BCA3FF543F30E5090E
:1010F000541FFEE493A360010ECF54C025E060A806
:1011000040B8E493A3FAE493A3F8E493A3C8C58298
:10111000C8CAC583CAF0A3C8C582C8CAC583CADF06
:10112000E9DEE780BE900063120762900073740AE4
:10113000F0900073E0FF74682FF582E43400F583CB
:10114000E4F0900073E014F090006312074AC3EFDC
:10115000940AEE940040577B0A7A00790078009058
:10116000006312074A12063AAC00AD01AE02AF03AB
:10117000EF2430FF900067EFF0900067E0FF9000F1
:1011800073E0FE74682EF582E43400F583EFF0908E
:10119000006312074A7B0A7A007900780012063A47
:1011A000900063120762900073E014F0809A7B0A4B
:1011B0007A007900780090006312074A12063AAC70
:1011C00000AD01AE02AF03EF2430FF900067EFF0F7
:1011D000900067E0FF900073E0FE74682EF582E4F3
:1011E0003400F583EFF0900073E0FF74682FF9E4AA
:1011F0003400FA7B011214E2227F287E007D007CFD
:10120000001213CA7F031215C97F057E007D007C82
:10121000001213CA7F031215C97F0F7E007D007C68
:10122000001213CA7F031215C97F017E007D007C66
:10123000001213CA7F021215C97F057E007D007C53
:10124000001213CA7F0612167E7F0E12167E7F2CA6
:1012500012167E7F0812167E7F0112167E7F0C12F8
:10126000167E7F0312167E7F057E007D007C0012B5
:1012700013CA2290005DE4F090004FE4F090005516
:10128000E4F090004EE4F0900051E4F090004DE462
:10129000F0900052E4F090004CE4F0900050E4F044
:1012A0009000587401F090005C7402F0900061743A
:1012B00010F090005B741EF090005F742CF07F01C2
:1012C0001218F19000547401F07F011218929000EE
:1012D000577401F07F0112173B9000537401F07FA7
:1012E0000112194E9000567401F022410062004133
:1012F000005A00410060004100590041005E004179
:1013000000540041004800410045004100570041A1
:10131000004B00410049004100530041004700419B
:101320000044004100560041004A0041004600418F
:10133000005800410096004100950041009400448F
:101340000086016E360044008100005DC0410085CA
:101350001844008B2EE0000043008F000000410085
:101360009700007F001219D67F001218F17F00123B
:1013700017D07F001218927F001218627F00121996
:101380004E7F0012179F7F0012173B7F011218013A
:101390007F011218C27F0112176D7F011218327F70
:1013A000F47E017D007C001213CA7F001218017FB9
:1013B000001218C27F0012176D7F001218327FF4DE
:1013C0007E017D007C001213CA2290FFFC1207B23E
:1013D000120762850B83850C8212074AD3EF9400B3
:1013E000EE9480402F90008B12074A121700850B55
:1013F00083850C82C083C08212074AEF2400FFEE6F
:101400003480FEED34FFFDEC34FFFCD082D083123B
:10141000076280BF90008112074A850B83850C828A
:101420001207561205AF1217009000041207B222DD
:1014300090007BEFF0905120E0FFEF4420FFEFF0B1
:10144000905120E0FFEF54BFFFEFF07F007E0012CD
:10145000197C905120E0FFEF54F0FFEFF090512005
:10146000C083C082E0FF90007BE0FEEE4410FEEF00
:101470004EFFD082D083EFF07F017E0012197C9066
:101480005120E0FFEF54EFFFEFF022900063EFF008
:10149000900064EDF0900063E0FFEF12078C14AE53
:1014A0000014BB0114C80214D503000014E190001D
:1014B00064E0FFEF2480FF12167E22900064E0FFBC
:1014C000EF24C0FF12167E22900064E0FFEF249408
:1014D000FF12167E22900064E0FFEF24D4FF121664
:1014E0007E229000741207779000777401F09000CC
:1014F0007412076E120561FF900078EFF09000788B
:10150000E0FFEF602A900078E0FF12164890007428
:1015100012076E900077E0FFE92FF9E43AFA12051E
:1015200061FF900078EFF0900077E004F080CE2229
:10153000900063E4F0900063E0FFEFD3941F503D10
:10154000900063E0FF7E02EF8EF0A4FFAEF0EF2488
:1015500000FFEE3444FEAA06A9077B01C003C002C7
:10156000C0017BFF7A1D7900AC02AD01D001D00231
:10157000D003121C7B900063E004F080B822465434
:10158000473A20002020004654523A200046544159
:101590003A20005254473A20005254523A20005206
:1015A00054413A20004C54473A20004C54523A20BF
:1015B000004C54413A20004454473A2000445452CD
:1015C0003A20004454413A2000900067EFF09051D7
:1015D00020E0FFEF549FFFEFF0905120E0FFEF5429
:1015E000F0FFEFF0905120C083C082E0FF900067D1
:1015F000E0FEEE4410FEEF4EFFD082D083EFF07F8E
:10160000017E0012197C905120E0FFEF54EFFFEFB4
:10161000F0227B0C7A0179CF121CB9900063EFF0B5
:10162000900063E0FFEF5407FF90586EEFF09000DA
:1016300063E0FFEFC4540FFFEF540FFF90586FEFBC
:10164000F09058767444F022900079EFF0120C9AE2
:10165000900079E0FFEFC4540FFF90007AEFF09014
:10166000007AE0FF121430900079E0FFEF540FFF92
:1016700090007AEFF090007AE0FF12143022900090
:1016800065EFF0120C9A900065E0FFEFC4540FFF75
:10169000900066EFF0900066E0FF1215C9900065BB
:1016A000E0FFEF540FFF900066EFF0900066E0FF60
:1016B0001215C922758600EF4E6027EF60010E7586
:1016C0009300900068E0F595A3E0F585A3E0F5842C
:1016D0008B938A838982E0A30586F0A31586DFF6C3
:1016E000DEF4E4F593F59522EF54016004D2AF8067
:1016F00002C2AFEF5402FF9044F4E054FD4FF022D9
:10170000EC4D4E700D78FCEF24E950032840FD228B
:1017100000007BF178DA0000EF28FF78FFEE38FE5A
:10172000ED38FDEC38FC50E7EF2BFFEE38FEED38DE
:10173000FDEC38FC40F22205020304900063EFF058
:10174000905130E0FFEF547FFF900064EFF0900085
:1017500063E0FFEFC43333335480FFEF5480FF90D6
:101760000064E0FEEF4EFF905130EFF022900063F6
:10177000EFF0905100E0FFEF547FFF900064EFF036
:10178000900063E0FFEFC43333335480FFEF5480A5
:10179000FF900064E0FEEF4EFF905100EFF02290CA
:1017A0000063EFF0905130E0FFEF54F7FF900064DA
:1017B000EFF0900063E0FFEF33333354F8FFEF5462
:1017C00008FF900064E0FEEF4EFF905130EFF022F2
:1017D000900063EFF0905130E0FFEF54BFFF9000B6
:1017E00064EFF0900063E0FFEFC4333354C0FFEFC9
:1017F0005440FF900064E0FEEF4EFF905130EFF058
:1018000022900063EFF0905100E0FFEF54BFFF9093
:101810000064EFF0900063E0FFEFC4333354C0FF87
:10182000EF5440FF900064E0FEEF4EFF905100EF58
:10183000F022900063EFF0905130E0FFEF54DFFFB3
:10184000900064EFF0900063E0FFEFC43354E0FFDA
:10185000EF5420FF900064E0FEEF4EFF905130EF18
:10186000F022900063EFF0905100E0FFEF54DFFFB3
:10187000900064EFF0900063E0FFEFC43354E0FFAA
:10188000EF5420FF900064E0FEEF4EFF905100EF18
:10189000F022900063EFF0905130E0FFEF54FBFF37
:1018A000900064EFF0900063E0FFEF25E025E0FF9B
:1018B000EF5404FF900064E0FEEF4EFF905130EFD4
:1018C000F022900063EFF0905130E0FFEF54EFFF13
:1018D000900064EFF0900063E0FFEFC454F0FFEF7E
:1018E0005410FF900064E0FEEF4EFF905130EFF097
:1018F00022900063EFF0905100E0FFEF54EFFF9073
:101900000064EFF0900063E0FFEFC454F0FFEF5489
:1019100010FF900064E0FEEF4EFF905100EFF022C8
:101920007FFE121C597FFE121C69121BE990006396
:10193000EFF090649EE0FFEF4410FFEFF090006343
:10194000E0FF1216E8121C887F00121C492290004A
:1019500063EFF0905130E0FFEF54FDFF900064EF33
:10196000F0900063E0FFEF25E0FFEF5402FF9000EE
:1019700064E0FEEF4EFF905130EFF022EEFA90005F
:1019800085E0F88FF0A4FFAEF0E88AF0A42EFEE523
:10199000F03400FDEF24C9FF78FFEE38FEED38FD8E
:1019A000E438FC500302170022ACEAADA08B938A06
:1019B000838982E0F96017A3E0F5EAA3E0F5A0A32C
:1019C000E060F4FAA3E0F8A3E0F2DAF8D9E98DA038
:1019D0008CEAE4F59322900063EFF0905130E0FF41
:1019E000EF54FEFF900064EFF0900063E0FFEF54CF
:1019F00001FF900064E0FEEF4EFF905130EFF022C7
:101A0000C0E0C083C082C085C084C086758600C027
:101A1000937593009000437401F0D093D086D084E6
:101A2000D085D082D083D0E032C0E0C083C082C0F5
:101A300085C084C086758600C0937593009000624F
:101A40007401F0D093D086D084D085D082D083D05A
:101A5000E032900063EEF0A3EFF07B027A4479006D
:101A6000900063E0FEA3E0FFAD07AC06121C7B22F2
:101A7000900063EEF0A3EFF07B027A4479029000CD
:101A800063E0FEA3E0FFAD07AC06121C7B22905181
:101A900031E0FFEF5410FF7E00EEC4F854F0C86848
:101AA000FEEFC4540F48FF22905101E0FFEF5410A5
:101AB000FF7E00EEC4F854F0C868FEEFC4540F482F
:101AC000FF22EC4D6011ED60010C8B938A838982BB
:101AD000E4F0A3DDFCDCFA75930022905131E0FFC5
:101AE000EF5480FF7E00EF7807CEC313CE13D8F9F2
:101AF000FF22905131E0FFEF5408FF7E00EF7803A2
:101B0000CEC313CE13D8F9FF22905131E0FFEF542A
:101B100020FF7E00EF7805CEC313CE13D8F9FF2245
:101B2000905101E0FFEF5420FF7E00EF7805CEC317
:101B300013CE13D8F9FF22905101E0FFEF5480FF3C
:101B40007E00EF7807CEC313CE13D8F9FF22905151
:101B500031E0FFEF5404FF7E00EF7802CEC313CED6
:101B600013D8F9FF22905131E0FFEF5440FF7E007F
:101B7000EF7806CEC313CE13D8F9FF22905101E0BF
:101B8000FFEF5440FF7E00EF7806CEC313CE13D88C
:101B9000F9FF22900063EFF0900063E0FFEFC433A1
:101BA00054E0FF904480EFF022900063EFF090004B
:101BB00063E0FFEFC43354E0FF904481EFF02290E4
:101BC0000096E0FFEF70091219209000967401F062
:101BD000121C9522900094E0FFEF70091211F99009
:101BE00000947401F0121CAD229044F4E0F8440219
:101BF000F0E85402FF10AF012274014FFF22121CC3
:101C0000D87E1A7F00121A527F07121B93121CD122
:101C100022905131E0FFEF5402FF7E00EEC313FE2D
:101C2000EF13FF22121CE67E1A7F29121A707F071B
:101C3000121BA9121CDF22900068EFF0900068E0F0
:101C4000FF900068EFF080FE22900064EFF09000BB
:101C500064E0FF90648EEFF022900064EFF090005B
:101C600064E0FF90642EEFF022900064EFF09000AB
:101C700064E0FF90640EEFF0228B938A838982EDFB
:101C8000F0A3ECF075930022121CF4EF30E3051280
:101C90001CFA80F42290647EE0FFEF4480FFEFF0B6
:101CA00022905131E0FFEF5401FF7E00227F0C12A1
:101CB000167E9000957401F0228B938A838982E0CE
:101CC000759300FF228B938A838982EDF0759300D0
:101CD000229044C07401F0229044C87401F0229014
:101CE00044C07402F0229044C87402F0229044D898
:101CF0007402F02290646EE0FF2290644EE0FF22B6
:101D000080FE3200514000200051C000100051F010
:101D10000010010000100001140008000140000A3A
:0B1D200000014C0002000150000020F8
:00000001FF
