:400000000239BF008F828E83E0540100000070F82278FFE4F6D8FD023A1D0203DBE86480F8E933E83360110460F0ED33EC337009E8FCE9FDEAFEEBFF220460DED3EB9FEAC7
:400040009EE99DE8C2E78CF0C2F795F0400CE8CCF8E9CDF9EACEFAEBCFFB1203A685D0F05804700320D5B3E80470075002B2D50203E592D5EC0460F7E4CCC0E0C398F860B5
:400080003B94186008400DD0E0FB0203BDE4FBFAC9FC8028E830E406E4C9FBE4CAFCE830E305E4C9CACBFCE854076010F8C3E913F9EA13FAEB13FBEC13FCD8F130F52FC331
:4000C000E49CFCEF9BFFEE9AFEED99FDD0E0FBEF4E4D4C701222DB030203E2EC2CFCEF33FFEE33FEED33FDED30E7EB0203BDEF2BFFEE3AFEED39FDD0E0FB50130BBB0003AD
:400100000203E5ED13FDEE13FEEF13FFEC13FC0203BDEC4D6011E8497017ED33EC3304600DE4FCFFFEFD22E933E8330470F80203DB1203A658046009E4CC248150062850E7
:40014000090203E52840030203E2C0E0EB4A7044B98006D0E0FB0203D1EF4E701CBD8008EBFFEAFEE9FD80EBE98DF0A4FEE5F00201FBE9CDF9EAFEEBFFEF89F0A4FCE5F087
:40018000CE89F0A42EFFE435F0CD89F0A42DFEE435F08067EF4E7005BD80D780C3EF8BF0A4ACF0EE8BF0A42CFCE435F0F8EF8AF0A42CE5F038FCE433CB8DF0A42CFCE5F0EE
:4001C0003BF8EE8AF0A42CFCE5F038F8E433CF89F0A42CFCE5F038CF3400CE89F0A42FFFE5F03EFEE433C98DF0A42EFEE5F039CD8AF0A42FFFE5F03EFEE43DFD33D0E0FBCD
:4002000050070BBB000F0203E5EC2CFCEF33FFEE33FEED33FD0203BD0203E5EC5D046005E8590470030203DB1203A6580460F6EC4860F2EC7004FDFEFF22C860DB2481C862
:400240005009C398600250060203E29850CAF582E9294B4A7005AB820203D175F0007C1A7880C3EF9BEE9AED99400DC3EF9BFFEE9AFEED99FDE842F0DC23ACF0D0E0FFD0BF
:40028000E0FED0E0FDAB8220E7101BEB60BAEC2CFCEF33FFEE33FEED33FD0203BDE803F830E705C0F075F000EF2FFFEE33FEED33FD40B830E7C280AA74F8CC6480CCC864A0
:4002C00080C8F58204604FC3EB9FF5F0EA9E42F0E99D42F0E89C45F0603C501DE5825FFFE582D313CB5BCBF42B5582FB50280ABA002409B9002008801DE5825BFBE582D354
:4003000013CF5FCFF4C3132F5582FF50090EBE00050DBD00010CC3EB9FF5F0EA9E42F0E99D42F0E89C45F06007CC4820E701B3EC2275F020800E75F010800575F0087D0045
:400340007E007F003392D530D503120755EC334010EF33FFEE33FEED33FDEC33FCD5F0ED22E5F0247EA2D513CC92E7CDCEFF22EDD2E7CD33EC3392D524814006E4FFFEFDBE
:40038000FC22FCE4CFCECDCC24E0501174FF80EDC3CC13CCCD13CDCE13CECF13CF0470F030D5DE020755E9D2E7C933E833F892D5EDD2E7CD33EC33FC5002B2D522EC30E7CD
:4003C000100FBF000C0EBE00080DBD00040BEB6014A2D5EB13FCED92E7FD2274FFFCFDFEFF22E480F8A2D574FF13FC7D80E480EFF920E73624F950037907E4F42402FBE5DD
:4004000082158270021583DBF6E024FB501BE96014E4F0E582158270021583E004F0B40A08E4F0D9EE7401F00A22C2D522ED33EC3392D5FA602AB4FF33EDC2E77BFF600620
:400440007A047952E4227A04795B20D5047A047956224E614E002B494E46002D494E4600E47A08F0A3DAFC7B00740722C083C082ECC0E0EDC0E0EEC0E0EFC0E0EA75F01063
:40048000A4CAABF075F04DA42BFBE435F0FCEA2410FAEB34C5FBEC34D9FCEDC2E7FF75F056A4F42411C5F0F434C58FF0A42AE5F03BE43CF020E714120562D0E0FFD0E0FEA9
:4004C000D0E0FDD0E0FC12021B8014F404120562D0E0FFD0E0FED0E0FDD0E0FC120112D082D083E0FAEDD2E7CD33EC332482FBE4C3CF33CFCE33CECD33CD33DBF37B0775A3
:40050000F00A846004F0A31B0AE5F0F0A38FF0740AA4FFACF08EF0740AA42CFEACF050010C8DF0740AA42CFDE435F0F0A3DBDE7407223F8000004120000042C80000447A18
:400540000000461C400047C35000497424004B1896804CBEBC205A0E1BCA6753C21C749DC5AEFB60065407601C2323120590EB5438600912057C12058B120112ECF8EDF9AD
:40058000EEFAEFCB22EB12058B80F1543803241C900532FE93FC0EEE93FD0EEE930ECE93FF22BB010689828A83E0225002E722BBFE02E32289828A83E49322BB010CE582D4
:4005C00029F582E5833AF583E0225006E92582F8E622BBFE06E92582F8E222E58229F582E5833AF583E49322BB010689828A83F0225002F722BBFE01F322C5F0F8A3E028D6
:40060000F0C5F0F8E582158270021583E038F022EF2BFFEE3AFEED39FDEC38FC22C3EF9BFFEE9AFEED99FDEC98FC22E88FF0A4CC8BF0A42CFCE98EF0A42CFC8AF0EDA42CC8
:40064000FCEA8EF0A4CDA8F08BF0A42DCC3825F0FDE98FF0A42CCD35F0FCEB8EF0A4FEA9F0EB8FF0A4CFC5F02ECD39FEE43CFCEAA42DCE35F0FDE43CFC2275F008758200B4
:40068000EF2FFFEE33FECD33CDCC33CCC58233C5829BED9AEC99E58298400CF582EE9BFEED9AFDEC99FC0FD5F0D6E4CEFBE4CDFAE4CCF9A88222B800C1B90059BA002DEC5B
:4006C0008BF084CFCECDFCE5F0CBF97818EF2FFFEE33FEED33FDEC33FCEB33FB10D703994004EB99FB0FD8E5E4F9FA227818EF2FFFEE33FEED33FDEC33FCC933C910D7051F
:400700009BE99A4007EC9BFCE99AF90FD8E0E4C9FAE4CCFB2275F010EF2FFFEE33FEED33FDCC33CCC833C810D7079BEC9AE899400AED9BFDEC9AFCE899F80FD5F0DAE4CD05
:40074000FBE4CCFAE4C8F922EF4BFFEE4AFEED49FDEC48FC22C3E49FFFE49EFEE49DFDE49CFC22EB9FF5F0EA9E42F0E99D42F0E89C45F022E8600FECC313FCED13FDEE1369
:40078000FEEF13FFD8F122E8600FEFC333FFEE33FEED33FDEC33FCD8F122BB010789828A830207D45005E9F80209BEBBFE05E9F80209CA89828A830209D6BB010789828A56
:4007C000830207EC5005E9F80209E6BBFE05E9F80209F222E0FCA3E0FDA3E0FEA3E0FF22E0F8A3E0F9A3E0FAA3E0FB22ECF0A3EDF0A3EEF0A3EFF022A42582F582E5F0355D
:4008000083F58322E0FBA3E0FAA3E0F922F8E0FBA3A3E0F925F0F0E582158270021583E0FA38F022EBF0A3EAF0A3E9F022E493FB740193FA740293F922D083D082F8E493E0
:400840007012740193700DA3A393F8740193F5828883E4737402936860EFA3A3A380DFE5162582F582E5153583F583B515048582162210AF06858216F51522858216F51532
:40088000D2AF22EC8EF0A4CCC5F0CCCDF8EFA4CEC5F02DFDE43CFCE8A42EC8C5F03DFDE43CFCEFA4FFE5F028FEE43DFDE43CFC22EF4E6012EF60010EEDBB010B89828A83CA
:4008C000F0A3DFFCDEFA2289F05007F709DFFCA9F022BBFEFCF309DFFCA9F022E709F608DFFA8046E709F208DFFA803E88828C83E709F0A3DFFA8032E309F608DFFA806EFD
:40090000E309F208DFFA806688828C83E309F0A3DFFA805A89828A83E0A3F608DFFA804E89828A83E0A3F208DFFA804280D280FA80C680D4805580F28029801080A680EAE1
:40094000809A80A880DA80E280CA802988848C8589828A83E493A30586F0A30586DFF5DEF3800B89828A83E493A3F608DFF9ECFAA9F0EDFB2288848C8589828A83E0A30510
:4009800086F0A30586DFF6DEF480E389828A83E493A3F208DFF980D688F0EF60010E4E60CD88F0ED2402B4040050C3F582EB2402B4040050B9232345822390092C73E6FCF5
:4009C00008E6FD08E6FE08E6FF22E2FC08E2FD08E2FE08E2FF22E493FC740193FD740293FE740393FF22ECF608EDF608EEF608EFF622ECF208EDF208EEF208EFF22290059A
:400A00008CE0FFEF7003020E2D900588E0FFEF70107D007F00124D4F7BFF7A3E79F8124EED900588E0FFEF64016003020B247D007F00124D4F7BFF7A3F7908124EED900583
:400A4000B01207D4C004C005C006C0077F007E007D007C009005BB1207EC7F337E337D537C409005BF1207EC7F007E007D207C419005C31207EC7F007E007D167C43900598
:400A8000C71207ECD007D006D005D0041246E512036F9005B5EEF0A3EFF09005B5E0FEA3E0FFC3EF9464EE9400503E7D007F01124D4F7BFF7A3E79F4124EED7D007F01129F
:400AC0004D4F9005B5E0FEA3E0FFE4FCFD123D4F7D067F01124D4F7BFF7A3E79F4124EED7D067F01124D4F801C7D007F01124D4F9005B5E0FEA3E0FFE4FCFD123D4F7D06F8
:400B00007F01124D4F90052BE0FEA3E0FFE4FCFD123D4F7D097F01124D4F7BFF7A3F791C124EED22900588E0FFEF64026003020C277D007F00124D4F7BFF7A3F7928124E3A
:400B4000ED9005B01207D4C004C005C006C0077F007E007D007C009005BB1207EC7F337E337D537C409005BF1207EC7F007E007D207C419005C31207EC7F007E007D167CED
:400B8000439005C71207ECD007D006D005D0041246E512036F9005B5EEF0A3EFF09005B5E0FEA3E0FFC3EF9464EE9400503E7D007F01124D4F7BFF7A3E79F4124EED7D0058
:400BC0007F01124D4F9005B5E0FEA3E0FFE4FCFD123D4F7D067F01124D4F7BFF7A3E79F4124EED7D067F01124D4F801C7D007F01124D4F9005B5E0FEA3E0FFE4FCFD123D37
:400C00004F7D067F01124D4F90052DE0FEA3E0FFE4FCFD123D4F7D097F01124D4F7BFF7A3F793C124EED22900588E0FFEF64036003020D2A7D007F00124D4F7BFF7A3F79C8
:400C400049124EED9005B01207D4C004C005C006C0077F007E007D007C009005BB1207EC7F337E337D537C409005BF1207EC7F007E007D207C419005C31207EC7F007E0052
:400C80007D167C439005C71207ECD007D006D005D0041246E512036F9005B5EEF0A3EFF09005B5E0FEA3E0FFC3EF9464EE9400503E7D007F01124D4F7BFF7A3E79F4124EB2
:400CC000ED7D007F01124D4F9005B5E0FEA3E0FFE4FCFD123D4F7D067F01124D4F7BFF7A3E79F4124EED7D067F01124D4F801C7D007F01124D4F9005B5E0FEA3E0FFE4FC18
:400D0000FD123D4F7D067F01124D4F90052FE0FEA3E0FFE4FCFD123D4F7D097F01124D4F7BFF7A3F793C124EED22900588E0FFEF64046003020FF97D007F00124D4F7BFFD9
:400D40007A3F795C124EED9005B01207D4C004C005C006C0077F007E007D007C009005BB1207EC7F337E337D537C409005BF1207EC7F007E007D207C419005C31207EC7F8A
:400D8000007E007D167C439005C71207ECD007D006D005D0041246E512036F9005B5EEF0A3EFF09005B5E0FEA3E0FFC3EF9464EE9400503E7D007F01124D4F7BFF7A3E7987
:400DC000F4124EED7D007F01124D4F9005B5E0FEA3E0FFE4FCFD123D4F7D067F01124D4F7BFF7A3E79F4124EED7D067F01124D4F801C7D007F01124D4F9005B5E0FEA3E0A2
:400E0000FFE4FCFD123D4F7D067F01124D4F900531E0FEA3E0FFE4FCFD123D4F7D097F01124D4F7BFF7A3F793C124EED229005ABE0FFEF6003020FE0125BCEEFB4011D7D00
:400E4000007F00124D4F7BFF7A3F796F124EED9005A1E0FEA3E0FF1233368046125904EFB4011D7D007F00124D4F7BFF7A3F7975124EED9005A1E0FEA3E0FF12333680220B
:400E80001259F0EFB4011B7D007F00124D4F7BFF7A3F797B124EED9005A1E0FEA3E0FF1233361259D9EFB4011D7D087F00124D4F7BFF7A3F7981124EED9005AEE0FEA3E014
:400EC000FF12333680461259C2EFB4011D7D087F00124D4F7BFF7A3F7987124EED9005AEE0FEA3E0FF12333680221258EAEFB4011B7D087F00124D4F7BFF7A3F798D124E74
:400F0000ED9005AEE0FEA3E0FF123336125994EFB4011D7D007F01124D4F7BFF7A3F7993124EED9005ACE0FEA3E0FF1233368046125B1CEFB4011D7D007F01124D4F7BFF5E
:400F40007A3F7999124EED9005ACE0FEA3E0FF12333680221259ABEFB4011B7D007F01124D4F7BFF7A3F799F124EED9005ACE0FEA3E0FF123336125966EFB4011C7D087FD2
:400F800001124D4F7BFF7A3F79A5124EED90059FE0FEA3E0FF1233362212594FEFB4011C7D087F01124D4F7BFF7A3F79AB124EED90059FE0FEA3E0FF1233362212597DEFDA
:400FC000640170357D087F01124D4F7BFF7A3F79B1124EED90059FE0FEA3E0FF123336229005ABE0FFEFB401107D037F00124D4F7BFF7A3F79B7124EED22E50824DCF582A3
:40100000E43405F583E00508229005D93007039005DCE475F00112080D0205A22000E97F2ED2008018EF540F2490D43440D4FF30040BEF24BFB41A0050032461FFE5096094
:40104000021509050CE50C7002050B30070E9005D9E475F00112080DEF0205E80257B57403D2078003E4C207F5089005D9120824E4F509F50BF50CE50960077F2012103D5D
:4010800080F5750AFFC201C200C202C203C205C206C208121009FF700D3007057F0012104EAF0CAE0B22B4255FC2D5C204121009FF24D0B40A00501A75F00A780930D50599
:4010C00008B6FF0106C6A426F620D5047002D20380D924CFB41A00EF5004C2E5D204021340D20180C6D20080C0D20280BCD2D580BAD20580B47F2012103D2002077401B5BF
:40110000090040F1120FFAFF12103D021077D208D2068095120FFAFB120FFAFA120FFAF94A4B7006793E7A147BFF20022EE509602A7E008E827583001205BB60060EEE65BC
:401140000A70F0C2D5EBC0E0EAC0E0E9C0E0EE1213A1D0E0F9D0E0FAD0E0FB1205A2FF60AAEBC0E0EAC0E0E9C0E012103DD0E02401F9D0E03400FAD0E0FBE50A0460DCD504
:401180000AD98087D20280A212138360F7E50A7001041203F0A90A600DE50A600914F50A12142BEF60F3EA30E702F404C3995079EAF4250A0430E701E404F50A800D1213E7
:4011C0008360C1EA050A250A1203F0EA900608F030E701E4250A04D50A04200501141213A1E4C0E012142B900608E0601320E70714F0121025802204F0D0E014C0E07F00FC
:40120000121025E50A600712101C150A800B30050312101CD0E0021077D0E00480C4121383609EE50A041203F0900608EAF0E50A20050260010424041213A174FF04C0E0EC
:4012400012142B121025E50A200502600312101CD0E0B50AE87F4512102F900608E07F2B30E7047F2DF404C0E012103DD0E075F00A84C0F0121026D0E01210260210777938
:401280001080027908C206C2088008D2D5790A8004790AC2D5E50A047002F50AE4FAFDFEFF120FFAFC7B08200113120FFAFD7B1030000A120FFAFE120FFAFF7B20EC3382E3
:4012C000D592D55013C3E43000069FFFE49EFEE42001039DFDE49CFCE4CBF8C201EC700CCFCECDCCE824F8F870F38017C3EF33FFEE33FEED33FDEC33FCEB33FB994002FB0E
:401300000FD8E9EB300105F8D0E0C448B201C0E00AEC4D4E4F78207B0070C2EAB50A0040BCC0E01213A3D0F0D0E0200104C4C0E0C4B201C0F0121026D0F0D5F0EB02107722
:40134000120839111453127F5810E54C10E14212834F128B44128B4910FA4312915511BE46121E45118847145E5010E92D10ED2E11102B10F123110E2014472A10A94800A3
:40138000001108E50AB4FF03750A06120FFAFC120FFAFD120FFAFE120FFAFF90060102042D790AA2D5200314300509B910020404B9080104A2D520060250010420026892A6
:4013C00002B509005034C0E07F203003197F30A20272067205500F1213FAC202C206C205C2087F30800F300503E9C0E012103D300503D0E0F9D0E0B509CC3005177F30B914
:40140000100C12103D7F583004077F788003B9080312103D3002057F2D02103D7F202008F87F2B2006F322920280CF7F00B40700500B2401F582E43406F583E0FF22286E6B
:40144000756C6C2900D201120FFA3001F8C201780930D50108F60210A92D50434958120FFA2403B405004001E49014599312102E743A12102ED20375090402127F90059E60
:40148000E0FFEF12083914AE00151401156C0215B303160A0416620516A906170007175808179F0917F60A184A0B000018879005A1E0FEA3E0FFEF4E600302188790058BFD
:4014C000E0FFEF600790058BE4F080109005A9E0FEA3E0FF9005ACEEF0A3EFF09005A1E4F0A37402F09005A1E0FEA3E0FFEF64024E60030218877F0012555A90052AE4F0D1
:401500007F0112546A90051C7401F090059E7401F00218879005A1E0FEA3E0FFEF4E600302188790052BE0FEA3E0FF9005A1EEF0A3EFF090052BE0FEA3E0FF9005A1E0FC4D
:40154000A3E0FDED6F7002EC6E60030218877F0012546A90051CE4F07F0112569A9005237401F090059E7402F00218879005A1E0FEA3E0FFEF4E60030218879005A1E4F031
:40158000A37402F09005A1E0FEA3E0FFEF64024E60030218877F0012569A900523E4F07F0112555A90052A7401F090059E7403F00218879005AEE0FEA3E0FFEF4E600302F3
:4015C00018879005A3E0FEA3E0FF9005A1EEF0A3EFF09005AEE4F0A37402F09005AEE0FEA3E0FFEF64024E60030218877F001254FB900589E4F07F0112552B9005247401A2
:40160000F090059E7404F00218879005AEE0FEA3E0FFEF4E600302188790052DE0FEA3E0FF9005AEEEF0A3EFF090052DE0FEA3E0FF9005AEE0FCA3E0FDED6F7002EC6E608C
:40164000030218877F0012552B900524E4F07F011254399005267401F090059E7405F00218879005AEE0FEA3E0FFEF4E60030218879005AEE4F0A37402F09005AEE0FEA3E4
:40168000E0FFEF64024E60030218877F00125439900526E4F07F011254FB9005897401F090059E7406F002188790059FE0FEA3E0FFEF4E60030218879005A5E0FEA3E0FFE6
:4016C0009005AEEEF0A3EFF090059FE4F0A37402F090059FE0FEA3E0FFEF64024E60030218877F001253A4900529E4F07F0112549B9005197401F090059E7407F00218870E
:4017000090059FE0FEA3E0FFEF4E600302188790052FE0FEA3E0FF90059FEEF0A3EFF090052FE0FEA3E0FF90059FE0FCA3E0FDED6F7002EC6E60030218877F0012549B902C
:401740000519E4F07F011254089005227401F090059E7408F002188790059FE0FEA3E0FFEF4E600302188790059FE4F0A37402F090059FE0FEA3E0FFEF64024E6003021893
:40178000877F00125408900522E4F07F011253A49005297401F090059E7409F00218879005ACE0FEA3E0FFEF4E60030218879005A7E0FEA3E0FF90059FEEF0A3EFF0900596
:4017C000ACE4F0A37402F09005ACE0FEA3E0FFEF64024E60030218877F001255E6900587E4F07F011253D69005217401F090059E740AF00218879005ACE0FEA3E0FFEF4E66
:401800006003021887900531E0FEA3E0FF9005ACEEF0A3EFF0900531E0FEA3E0FF9005ACE0FCA3E0FDED6F7002EC6E705A7F001253D6900521E4F07F011254CB9005257405
:4018400001F090059E740BF0803D9005ACE0FEA3E0FFEF4E70319005ACE4F0A37402F09005ACE0FEA3E0FFEF64024E701A7F001254CB900525E4F07F011255E69005877412
:4018800001F090059EE4F0900512E0FFEF6031900512E4F09005A174FF75F0FF1205FA9005AE74FF75F0FF1205FA90059F74FF75F0FF1205FA9005AC74FF75F0FF1205FA21
:4018C0001209FE229005C5EEF0A3EFF09005C7ECF0A3EDF09005C9E4F09005CAE4F09005C5E0FEA3E0FFEF249CFFEE34FFFE9005CBEEF0A3EFF09005CD7403F09005CEE47F
:40190000F09005CFE4F0A3E4F09002517411F09005C7E0FEA3E0FFEF64BC7003EE64016003021AC39005CD7401F09005CBE0FEA3E0FFC006C0079005CBE0FEA3E0FFEF25F5
:40194000E0FFEE33FE742B2FF58274053EF583E0FCA3E0FDD007D00612415A9005CDE0FF04F074512FF582E43402F5837406F09005C5E0FEA3E0FFEEFF7E009005CDE0FE3E
:4019800004F074512EF582E43402F583EFF09005C5E0FEA3E0FF9005CDE0FE04F074512EF582E43402F583EFF09005CBE0FEA3E0FFEF25E0FFEE33FE742B2FF58274053EC1
:4019C000F583E0FEA3E0FFEEFF7E009005CDE0FE04F074512EF582E43402F583EFF09005CBE0FEA3E0FFEF25E0FFEE33FE742B2FF58274053EF583E0FEA3E0FF9005CDE0AD
:401A0000FE04F074512EF582E43402F583EFF09005CE7406F09005CEE0FF900248EFF07B017A0279519005CEE0FD123C789005CFEEF0A3EFF09005CFE0FEA3E0FFEEFF7E56
:401A4000009005CDE0FE04F074512EF582E43402F583EFF09005CFE0FEA3E0FF9005CDE0FE04F074512EF582E43402F583EFF09005CDE0FFEF04FF9005CAEFF09005CAE0D4
:401A8000FFEFC3946150369005CDE0FF74512FF582E43402F583E4F09005CDE004F09005CDE0FF74512FF582E43402F583E4F09005CDE004F09005CAE004F080BF7F031264
:401AC000308D229005C7E0FEA3E0FFEFB4BD18EEB401149002527410F09005CBE0FEA3E0FF900253EFF0229005CBE0FEA3E0FF9005C7E0FCA3E0FD12415A9002527403F0AE
:401B00009005C7E0FEA3E0FFEF25E0FF900253EFF09005CBE0FEA3E0FF9005C9EFF09005C7E0FEA3E0FF9005CBE0FCA3E0FDED2FFFEC3EFE9005C9E0FD7C00C3ED9FEC9EEA
:401B400050639005C9E0FF75F002EF90052B1207F8E0FEA3E0FFEEFF7E009005CDE0FE74512EF582E43402F583EFF09005CDE004F09005C9E0FF75F002EF90052B1207F8CE
:401B8000E0FEA3E0FF9005CDE0FE74512EF582E43402F583EFF09005CDE004F09005C9E004F0021B1E9005C7E0FEA3E0FFEF25E0FFEF2403FF9005CEEFF09005CEE0FF902F
:401BC0000248EFF07B017A0279519005CEE0FD123C789005CFEEF0A3EFF09005CFE0FEA3E0FFEEFF7E009005CDE0FE74512EF582E43402F583EFF09005CDE004F09005CF4C
:401C0000E0FEA3E0FF9005CDE0FE74512EF582E43402F583EFF09005CDE004F09005CDE0FF9005CAEFF09005CAE0FFEFC3946150369005CDE0FF74512FF582E43402F583CB
:401C4000E4F09005CDE004F09005CDE0FF74512FF582E43402F583E4F09005CDE004F09005CAE004F080BF7F0212308D22420516000A42051D000A420514000A42051A0093
:401C80000A605C052B000A000A000A000A00000000000000000000000000000000000000000000000000000000000000000000000000000000000000000000000000000006
:401CC0000000000000000000000000000000000000000000000000000000000000000000004805A300000000000000004105B4004105110041058C004105880041051800A5
:401D000041052A004105230041051C0041058900410526004105240041052900410522004105190041058700410525004105210041058B00420527000041058A006100007E
:401D40004300C1814001C0804101C0804100C1814001C0804100C1814000C1814001C0804101C0804100C1814000C1814001C0804100C1814001C0804101C0804100C18140
:401D80004001C0804100C1814000C1814001C0804100C1814001C0804101C0804100C1814000C1814001C0804101C0804100C1814001C0804100C1814000C1814001C08004
:401DC0004101C0804100C1814000C1814001C0804100C1814001C0804101C0804100C1814000C1814001C0804101C0804100C1814001C0804100C1814000C1814001C080C3
:401E00004100C1814001C0804101C0804100C1814001C0804100C1814000C1814001C0804101C0804100C1814000C1814001C0804100C1814001C0804101C0804100C18181
:401E4000406100014500C0C101C30302C2C60607C705C5C404CC0C0DCD0FCFCE0E0ACACB0BC90908C8D81819D91BDBDA1A1EDEDF1FDD1D1CDC14D4D515D71716D6D2121330
:401E8000D311D1D010F03031F133F3F23236F6F737F53534F43CFCFD3DFF3F3EFEFA3A3BFB39F9F83828E8E929EB2B2AEAEE2E2FEF2DEDEC2CE42425E527E7E62622E2E3D2
:401EC00023E12120E0A06061A163A3A26266A6A767A56564A46CACAD6DAF6F6EAEAA6A6BAB69A9A86878B8B979BB7B7ABABE7E7FBF7DBDBC7CB47475B577B7B67672B2B392
:401F000073B17170B0509091519353529296565797559594549C5C5D9D5F9F9E5E5A9A9B5B99595898884849894B8B8A4A4E8E8F4F8D4D4C8C448485458747468682424311
:401F400083418180404101440041024800420246000042004100004102450042003F000041014300410677004106760041067500440667016E360044066200005DC0410613
:401F8000661844066C2EE0000041065C0041065700410652004106580041065101440653000000004104670041050200410510004104690041046B0041050F0041046A0084
:401FC0004104680043067000000041067800410679FF007B007A4679E8125BF2EF4405FD7B007A4679E8125BFE751400E514C39407503AAF14EF75F005A424A8F582E43441
:402000005CF583AF82AE838E088F09AE08AF098F828E8312082DAE08AF098F828E83740393FC740493FD12591E051480BF751400E514C394025078AF14EF75F008A424CB91
:40204000F582E4345CF583AF82AE838E0A8F0BAE0AAF0B8F828E8312082D8B0C8A0D890EAE0AAF0B8F828E83A3A3A312082D8B0F8A108911AE0AAF0B8F828E83740693F5A1
:4020800012740793F513AB0FAA10A911C003C002C001AB0CAA0DA90E9005BF120824D001D002D003AF13AE12125370051480817B087A007900125641905883740AF07B0172
:4020C0007A507903125BF2EF4402FD7B017A507903125BFE7B017A507913125BF2EF4402FD7B017A507913125BFE9043A0E0FFEF4440FF9043A0EFF09043C2E0FFEF44106F
:40210000FF9043C2EFF07B087A047974C003C002C0017B007A5179029005BF120824D001D002D0037F087E001253707B087A04797CC003C002C0017B007A5179C09005BF46
:40214000120824D001D002D0037F0A7E001253707B087A047988C003C002C0017B007A5179F09005BF120824D001D002D0037F0A7E001253707B087A047994C003C002C0A1
:40218000017B007A5179129005BF120824D001D002D0037F087E001253707B087A04799CC003C002C0017B007A5179229005BF120824D001D002D0037F087E001253707BD1
:4021C000087A0479A4C003C002C0017B007A5179329005BF120824D001D002D0037F087E001253707B087A0479ACC003C002C0017B007A5179609005BF120824D001D00263
:40220000D0037F0A7E001253709044F47401F0904322E0FFEF4408FF904322EFF09046ECE0FFEFC394055006904689743AF09048007431F01228DD90480074B1F012517954
:402240007B007A4379A0C003C002C0017B007A4379B09005BF120824D001D002D0037F0E7E001253709043B0E0FFEF54FDFFEFF0229005B4E0FFEF600E900588E004F090D6
:4022800005B4E4F0125C61900588E0FFEF6401600302231C12573F90058CE0FFEF6402707290058C7401F09005B01207D4C004C005C006C0077F007E007D007C009005BBDB
:4022C0001207EC7F337E337D537C409005BF1207EC7F007E007D207C419005C31207EC7F007E007D167C439005C71207ECD007D006D005D0041246E512036F900516EEF08D
:40230000A3EFF0900516E0FEA3E0FF90052BEEF0A3EFF07F011252AC1209FE22900588E0FFEF640260030223B112573F90058CE0FFEF6402707290058C7401F09005B012DF
:4023400007D4C004C005C006C0077F007E007D007C009005BB1207EC7F337E337D537C409005BF1207EC7F007E007D207C419005C31207EC7F007E007D167C439005C71268
:4023800007ECD007D006D005D0041246E512036F90051DEEF0A3EFF090051DE0FEA3E0FF90052DEEF0A3EFF07F011252AC1209FE22900588E0FFEF64036003022446125778
:4023C0003F90058CE0FFEF6402707290058C7401F09005B01207D4C004C005C006C0077F007E007D007C009005BB1207EC7F337E337D537C409005BF1207EC7F007E007D8C
:40240000207C419005C31207EC7F007E007D167C439005C71207ECD007D006D005D0041246E512036F900514EEF0A3EFF0900514E0FEA3E0FF90052FEEF0A3EFF07F0112D3
:4024400052AC1209FE22900588E0FFEF640460030224DB12573F90058CE0FFEF6402707290058C7401F09005B01207D4C004C005C006C0077F007E007D007C009005BB1267
:4024800007EC7F337E337D537C409005BF1207EC7F007E007D207C419005C31207EC7F007E007D167C439005C71207ECD007D006D005D0041246E512036F90051AEEF0A336
:4024C000EFF090051AE0FEA3E0FF900531EEF0A3EFF07F011252AC1209FE22900588E4F0229005B5EFF09005B6ECF0A3EDF09005B8EAF0A3EBF09005BBE0FFEFD3940050A0
:40250000030226E09005BBE0FFEFD3940140030226E09005B5E0FFEF120839252E01252E04255B0725860825B10A000025DC9005BAE0FFEFD3940F40117B0C7A0179181205
:402540005BF29005BCEFF00225E17B0C7A01791C125BF29005BCEFF00225E19005BAE0FFEFD3940F40107B0C7A017919125BF29005BCEFF0806B7B0C7A01791D125BF29030
:4025800005BCEFF0805B9005BAE0FFEFD3940F40107B0C7A01791A125BF29005BCEFF080407B0C7A01791E125BF29005BCEFF080309005BAE0FFEFD3940F40107B0C7A011C
:4025C000791B125BF29005BCEFF080157B0C7A01791F125BF29005BCEFF080059005BCE4F09005BCE0FFEF3395E0FEFDFC7B207A007900780012062BA804A905AA06AB078D
:402600009005B6E0FEA3E0FFE4FCFD1206109005BD1207EC9005BD1207D4AB07AA06A905A804A804A905AA06AB079005B8E0FEA3E0FFE4FCFD12062B9005C31207EC7B0037
:402640007A80790078009005C31207D41206B69005C1EEF0A3EFF09005BAE0FFEFC3940E50479005C1E0FEA3E0FF9005BAE0FDC3740E9DFDEFA805088005CEC313CE13D846
:40268000F9FF9005C1EEF0A3EFF09005BAE0FFEF04FF9005BBE0FEEE75F003A42458F582E43406F583EFF080169005BBE0FFEF75F003A42458F582E43406F583740FF09070
:4026C00005C1E0FEA3E0FF9005BBE0FDED75F003A42456F582E43406F583EEF0A3EFF0227F00125AB6229005BAE4F09005BBE4F0A3E4F09005BDE4F0A3E4F09005BFE4F03F
:40270000A3E4F090000DE0FFEF641160030228DC90000CE0FF9005BAEFF0900250740DF09005BAE0FFEF240DFF900250E0FEEEC39F502A900250E0FF74002FF582E4340013
:40274000F583E0FF900250E0FE74512EF582E43404F583EFF0900250E004F080C37B017A04795E9005BAE0FD123C789005BBEEF0A3EFF09002457401F07D147F1312347DD7
:402780009005BBE0FCA3E0FDEF6D7002EE6C60030228D69002457402F07D037F0212347D9005BDEEF0A3EFF07D057F0412347D9005BFEEF0A3EFF090045FE0FFEF6403602B
:4027C0002690045FE0FFEF6406601C90045FE0FFEF641060129001437401F07B017A04795E7D011237BC2290045FE0FFEF640670489005BDE0FEA3E0FFC3EF9464EE9400F5
:4028000040119005BDE0FEA3E0FFD3EF9492EE940040129001437402F07B017A04795E7D011237BC229005BDE0FEA3E0FF9005BFE0FCA3E0FD124BDB2290045FE0FFEFB4F8
:402840001004125C9D229005BDE0FEA3E0FFC3EF9464EE9400401F9005BFE0FEA3E0FF9005BDE0FCA3E0FDED2FFFEC3EFED3EF9492EE940040439005BFE0FEA3E0FF9005FF
:40288000BDE0FCA3E0FDED2FFFEC3EFED3EF9492EE940040129001437402F07B017A04795E7D011237BC229001437402F07B017A04795E7D011237BC2290045FE0FFEFB42B
:4028C000031A9005BDE0FEA3E0FF9005BFE0FCA3E0FD1218C4229001437403F0227B007A4079807D007C00125BA69040827450F07B007A4079847D387C01125BA6904086DF
:402900007418F07B007A4079887DF47C2D125BA690408A7419F07B007A40798C7D2F7C75125BA690408E7419F07B007A4079907D2F7C75125BA69040927419F07B087A044E
:4029400079B8C003C002C0017B007A4179009005BF120824D001D002D0037F047E001253709043007402F09040007408F09042007403F07B0C7A017908125BF29046A1EF5D
:40298000F07B007A4279227D087C00125BA67B007A4279207D517C12125BA69005B9E4F07F197E007D007C009005B51207EC9005B51207D4D3EF9400EE9400404E9005B997
:4029C000E0FFEF64036044904225E0FFEF5401FF7E009005B9E0FEEE25E0FEEE4FFFEF5403FF9005B9EFF07FE07E017D007C001253009005B51207D47BFF7AFF79FF78FF47
:402A00001206109005B51207EC80A39005B51207D4EF4E70057F03125B557B007A4079047D007C01125BA69040047407F0904006E4F09040087448F0904004E4F09040012A
:402A40007402F090400B7404F09043A2E0FFEF441FFF9043A2EFF09043A1E0FFEF4401FF9043A1EFF09043A0E0FFEF4480FF9043A0EFF0229005B6EEF0A3EFF09005B8ED7E
:402A8000F0125C209005BAEFF0125C169005BBEEF0A3EFF09005BBE0FEA3E0FF9005B6E0FCA3E0FDED6F7002EC6E7003022C089043A2E0FFEF5401FF9005B9EFF09005BAFB
:402AC000E0FFEF705E9005BBE0FEA3E0FFEF4E600C9005B6E0FEA3E0FFEF4E70469005BBE0FEA3E0FFEF4E701D7B027A4079809005B6E0FCA3E0FD125BA8904082E0FFEFBD
:402B000054BFFFEFF022904082E0FFEF4440FFEFF07B027A4079809005B6E0FCA3E0FD125BA8229005B9E0FFEF606C904001E4F09040107401F0904014E4F0904008E0FFB1
:402B4000EF547FFFEFF0904082E0FFEF5408FF7E00EF4E600C9005B6E0FEA3E0FFEF4E70367B027A4079029005BBE0FCA3E0FD125BA89040017407F0904001E0FFEF5401E2
:402B8000FF7E00EF4E70F19043A2E0FFEF54FEFFEFF0904001E4F09043A2E0FFEF5401FF7E00EF4E603A7B027A4079029005B6E0FCA3E0FD125BA89005B8E0FFEF60047F8A
:402BC0000280027F00EF4401FF904001EFF0904001E0FFEF5401FF7E00EF4E602B80EF227B027A4079809005B6E0FCA3E0FD125BA89043A2C083C082E0FF9005B9E0FEEF45
:402C00004EFFD082D083EFF0229005B6EEF0A3EFF09005B8EDF0125C349005BAEFF0125C2A9005BBEEF0A3EFF09005BBE0FEA3E0FF9005B6E0FCA3E0FDED6F7002EC6E70C5
:402C400003022D9D9043A1E0FFEF5401FF9005B9EFF09005BAE0FFEF705E9005BBE0FEA3E0FFEF4E600C9005B6E0FEA3E0FFEF4E70469005BBE0FEA3E0FFEF4E701D7B02E9
:402C80007A4179009005B6E0FCA3E0FD125BA8904102E0FFEF54BFFFEFF022904102E0FFEF4440FFEFF07B027A4179009005B6E0FCA3E0FD125BA8229005B9E0FFEF606CF6
:402CC000904001E4F09040147401F0904010E4F0904008E0FFEF547FFFEFF0904102E0FFEF5408FF7E00EF4E600C9005B6E0FEA3E0FFEF4E70367B027A4079029005BBE048
:402D0000FCA3E0FD125BA89040017407F0904001E0FFEF5401FF7E00EF4E70F19043A1E0FFEF54FEFFEFF0904001E4F09043A1E0FFEF5401FF7E00EF4E603A7B027A407905
:402D4000029005B6E0FCA3E0FD125BA89005B8E0FFEF60047F0280027F00EF4401FF904001EFF0904001E0FFEF5401FF7E00EF4E602B80EF227B027A4179009005B6E0FC0F
:402D8000A3E0FD125BA89043A1C083C082E0FF9005B9E0FEEF4EFFD082D083EFF0229005C7EFF09005C8ECF0A3EDF01257679005C8E0FEA3E0FFC3EE94084003022F0C90BA
:402DC00005C8E0FEA3E0FFEEC4F854F0C868FEEFC4540F48FF9005CBEEF0A3EFF09005CBE0FEA3E0FFEFC4F8540FC868FFEEC454F048FE9005C8E0FCA3E0FDC3ED9FFFEC41
:402E00009EFE9005CDEEF0A3EFF0125589EF6003022F049005CDE0FCA3E0FD7B017A0579C79005D57401F07F401235A89005CAEFF09005CAE0FFEF64076003022EEF90055A
:402E4000CA74FFF0904722E0FFEF5402FF7E00EF4E60F1904722E0FFEF5402FF7E00EF4E600D904722E0FFEF1313543FFF80027FFFEF70059005CAE4F09005CAE0FFEF7006
:402E8000669005CBE0FCA3E0FD900673E0FB900674E0FF9005D3EFF07F401241FDEF6407703D9005CA74FFF0904722E0FFEF5402FF7E00EF4E60F1904722E0FFEF5402FFC0
:402EC0007E00EF4E600D904722E0FFEF1313543FFF80027FFFEF70279005CAE4F080209005CA74FFF080189005CA74FFF080109005CAE0FFEF640160069005CA74FFF0125A
:402F00005A76800E9005CA7404F080069005CA7401F09005CAE0FF227F947E017D007C009005D21207EC905120E0FFEF5480FFEFF0905122E0FFEF54F0FF9005D1EFF09061
:402F400005D1E0FFEF440FFF905122EFF0905123E0FFEF54F0FF9005D1EFF09005D1E0FF905123EFF0905124E0FFEF54F0FF9005D1EFF09005D1E0FF905124EFF090512072
:402F8000E0FFEF54DFFFEFF0905120E0FFEF4440FFEFF07F007E00125614905120E0FFEF4410FFEFF07F017E00125614905121E0FF9005D1EFF0905120E0FFEF54EFFFEFE7
:402FC000F07F007E001256149005D1E0FFEF5408FF9005D1EFF0905120E0FFEF4410FFEFF07F017E00125614905120E0FFEF54EFFFEFF09005D1E0FFEF70077F0A7E001265
:4030000056149005D21207D47BFF7AFF79FF78FF1206109005D21207EC9005D1E0FFEF60129005D21207D4D3EF9400EE94004003022F93905120E0FFEF54BFFFEFF09051E2
:4030400020E0FFEF5480FFEFF0905122E0FFEF54F0FFEFF0905123E0FFEF54F0FF9005D1EFF09005D1E0FFEF440FFF905123EFF0905124E0FFEF54F0FF9005D1EFF090050A
:40308000D1E0FFEF440FFF905124EFF0229005D1EFF09005D4741DF09005D1E0FFEF640170549002487403F01247CA9005D2E4F0A3E4F09005D2E0FEA3E0FFC3EF9405EE77
:4030C000940040030231559005D2E0FEA3E0FF744B2FF58274023EF583E0FF9005D4E0FD12483B9005D4E02402F09005D2E475F0011205FA80BD9005D1E0FFEF6402600AFD
:403100009005D1E0FFEF6403704B1247CA9005D2E4F0A3E4F09005D2E0FEA3E0FFC3EF9461EE9400502F9005D2E0FEA3E0FF74512FF58274023EF583E0FF9005D4E0FD1260
:40314000483B9005D4E02402F09005D2E475F0011205FA80C09005D1E0FFEFB4010B9005D2E4F0A37427F080129005D1E0FFEFB402099005D2E4F0A374DFF09005D2E0FE23
:40318000A3E0FFC3EF942CEE940150489005D2E0FEA3E0FFEFB42B1BEEB401179005D2E0FEA3E0FF74322FF58274033EF5837423F080159005D2E0FEA3E0FF74322FF58227
:4031C00074033EF5837430F09005D2E475F0011205FA80A77B017A0379327D2C7C0112445C2290058BE0FFEF607B9005A1E4F0A37402F090052BE0FEA3E0FFEF2406FFEE85
:403200003400FE9005AEEEF0A3EFF090052DE0FEA3E0FF90052BE0FCA3E0FDED2FFFEC3EFEEF240AFFEE3400FE90059FEEF0A3EFF090052DE0FEA3E0FF90052BE0FCA3E027
:40324000FDED2FFFEC3EFE90052FE0FCA3E0FDEF2DFFEE3CFEEF240EFFEE3400FE9005ACEEF0A3EFF090052FE0FEA3E0FF90052DE0FCA3E0FDED2FFFEC3EFE900531E0FCA3
:40328000A3E0FDEF2DFFEE3CFEEF240CFFEE3400FE9005A3EEF0A3EFF090052FE0FEA3E0FF90052BE0FCA3E0FDED2FFFEC3EFE900531E0FCA3E0FDEF2DFFEE3CFEEF240C6E
:4032C000FFEE3400FE9005A5EEF0A3EFF090052DE0FEA3E0FF90052BE0FCA3E0FDED2FFFEC3EFE900531E0FCA3E0FDEF2DFFEE3CFEEF240CFFEE3400FE9005A7EEF0A3EF45
:40330000F090052DE0FEA3E0FF90052BE0FCA3E0FDED2FFFEC3EFE90052FE0FCA3E0FDEF2DFFEE3CFEEF240CFFEE3400FE9005A9EEF0A3EFF0229005B7EEF0A3EFF090057A
:40334000ABE0FFEF600302347C9005B7E0FEA3E0FFC3EF9464EE940050277D057F00124D4F7BFF7A3E79F4124EED7D057F00124D4F9005A1E0FEA3E0FFE4FCFD123D4F8095
:40338000157D057F00124D4F9005A1E0FEA3E0FFE4FCFD123D4F9005B7E0FEA3E0FFC3EF9464EE940050277D0D7F00124D4F7BFF7A3E79F4124EED7D0D7F00124D4F9005FA
:4033C000AEE0FEA3E0FFE4FCFD123D4F80157D0D7F00124D4F9005AEE0FEA3E0FFE4FCFD123D4F9005B7E0FEA3E0FFC3EF9464EE940050277D0D7F01124D4F7BFF7A3E7928
:40340000F4124EED7D0D7F01124D4F90059FE0FEA3E0FFE4FCFD123D4F80157D0D7F01124D4F90059FE0FEA3E0FFE4FCFD123D4F9005B7E0FEA3E0FFC3EF9464EE94005000
:40344000267D057F01124D4F7BFF7A3E79F4124EED7D057F01124D4F9005ACE0FEA3E0FFE4FCFD123D4F227D057F01124D4F9005ACE0FEA3E0FFE4FCFD123D4F229005C158
:40348000EFF09005C2EDF0900245E0FFEF640160030235169005C1E0FF900250EFF09005C2E0FF900250E0FEEEC39F400302359F900250E0FF74002FF582E43400F583E09F
:4034C000FF7E009005C3EEF0A3EFF09005C3E0FEA3E0FFEF7F00FE9005C3EEF0A3EFF0900250E004F09005C3E0FEA3E0FF900250E0FD74002DF582E43400F583E0FD7C008D
:40350000EE4CFEEF4DFF9005C3EEF0A3EFF0900250E004F08088900245E0FFEF6402707F9005C1E0FF900250EFF09005C2E0FF900250E0FEEEC39F5066900250E0FF745E23
:403540002FF582E43404F583E0FF7E009005C3EEF0A3EFF09005C3E0FEA3E0FFEF7F00FE9005C3EEF0A3EFF0900250E004F09005C3E0FEA3E0FF900250E0FD745E2DF5827D
:40358000E43404F583E0FD7C00EE4CFEEF4DFF9005C3EEF0A3EFF0900250E004F0808B9005C3E0FEA3E0FF229005CFEFF09005D0ECF0A3EDF09005D21208249005D67407C9
:4035C000F09005CFE0FFEFC3943F500B9005D5E0FFEFC39420401C9005CFE0FFEFD3943F50030236A99005D5E0FFEFC3941040030236A9904722E0FFEF5402FF7E00EF4E07
:4036000070030236A190472074B6F090472074D4F09047207401F0904722E0FFEF5402FF7E00EF4E70739005CFE0FF904720EFF09005D0E0FEA3E0FFEEFF7E00EF5401FF5C
:40364000904720EFF09005D0E0FEA3E0FFEF54FFFF904720EFF09005D5E0FFEF14FF904720EFF09005D7E4F09005D5E0FF9005D7E0FEEEC39F50389005D21208049005D7DB
:40368000E0FFE92FF9E43AFA1205A2FF904720EFF09005D7E004F080CF9005D67409F0800E9005D67404F080069005D67401F09005D6E0FF22C0E0C083C082C085C084C07C
:4036C00086758600C093759300C0D075D000C006C00790060BE4F0A2AFE433FF90060CEFF0D2AF9044F474FDF0906461E0FF90060AEFF090060AE0FF900609EFF090060A35
:40370000E0FFEF541EFF7E00EF4E6016900469E0FF90060AE0FEEE541EFEEF4EFF900469EFF090060AE0FFEF30E566906442E0FF900609EFF0900609E0FF90050FE0FE7459
:403740006C2EF582E43404F583EFF090060B7401F090060BE0FFEF603890046AE0FFEF60069004687401F090050FE004F090050FE0FFEFC39496400590050FE4F090046B92
:40378000E0FF90050FE0FEEEB5070690046A7401F090060AE0FFEF30E5030236E990060CE0FFEF24FF92AFD007D006D0D0D093D086D084D085D082D083D0E0329005C1127C
:4037C00008249005C4EDF090024B7411F0900143E0FFEF6401706F9005C11208049005C4E0FFE92FF9E43AFA1205A2FF9005C5EFF09005C5E0FFEF4480FF9005C5EFF090B5
:4038000005C5E0FF90024CEFF090024D7401F07B017A02794B7D03123C789005C6EEF0A3EFF09005C6E0FEA3E0FFEEFF7E0090024EEFF09005C6E0FEA3E0FF90024FEFF0C1
:403840007F0112308D22900143E0FFEF6402706E9005C11208049005C4E0FFE92FF9E43AFA1205A2FF9005C5EFF09005C5E0FFEF4480FF9005C5EFF09005C5E0FF90024CF0
:40388000EFF090024D7402F07B017A02794B7D03123C789005C6EEF0A3EFF09005C6E0FEA3E0FFEEFF7E0090024EEFF09005C6E0FEA3E0FF90024FEFF07F0112308D2290C6
:4038C0000588E0FFEF703C7F0012569A7F0012555A7F001254397F001254FB7F001254CB7F001255E67F001254087F001253A47F0012546A7F0012552B7F001253D67F0078
:4039000012549B900588E0FFEFB401267F001254CB7F0112569A7F647E007D007C00124A4C7F0012569A7F647E007D007C00124A4C22900588E0FFEFB402267F0012569A9F
:403940007F011254397F647E007D007C00124A4C7F001254397F647E007D007C00124A4C22900588E0FFEFB403267F001254397F011254087F647E007D007C00124A4C7F8F
:40398000001254087F647E007D007C00124A4C22900588E0FFEFB404257F001254087F011254CB7F647E007D007C00124A4C7F001254CB7F647E007D007C00124A4C2275C4
:4039C000930078007583467582E8E04401F0009046ECE0F99046FAE0FAB903225420B40012B8001AEA901FFFF07401901FFEF09046F6F0901FFEE06005901FFFE0FA9048B3
:403A00000074C0F075812190000078007920E4F0A3D8FCD9FAEA90066BF002001175151F7516FD124F3B121FD3023A67024B7CE493A3F8E493A34003F68001F208DFF4802E
:403A400029E493A3F85407240CC8C333C4540F4420C8834004F456800146F6DFE4800B0102040810204080901C6DE47E019360BCA3FF543F30E509541FFEE493A360010EDC
:403A8000CF54C025E060A840B8E493A3FAE493A3F8E493A3C8C582C8CAC583CAF0A3C8C582C8CAC583CADFE9DEE780BE7BFF7A5C7943C003C002C0017B017A0579B5A801F6
:403AC000AC02AD03D001D002D0037E007F021209989005B77401F09005B8E4F09005B9E4F0900331E0FFEFB423047F0180027F009002B2E0FEEEB424047E0180027E00EE05
:403B00005FFFEF7003023B929005B77401F09005B7E0FFEFC3947F50759005B7E0FF74B22FF582E43402F583E0FFEFB42C089005B7E004F080D89005B7E0FF04F074B22F65
:403B4000F582E43402F583E0FF9005B5EFF09005B7E0FF04F074B22FF582E43402F583E0FF9005B6EFF07B017A0579B51243369005B9EFF09005B9E0FF9005B8E0FE04F081
:403B800074002EF582E43400F583EFF080801226E6221250AA229005B5EFF0900657E4F09005B5E0FFEF64016003023C77904E007438F0904E027404F0904E037406F090F3
:403BC0004E04E4F0904E05E4F0904E06743FF0904E08E4F0904E09E4F0904E0AE4F0904E147401F09058847450F0905885740DF0905886742BF0905887E4F090588A744471
:403C0000F090588B7448F090588C7401F090588EE4F090588FE4F0905890740AF09058917443F07F53124DF99058947458F0905895E4F090589A7405F090589B7402F090EA
:403C4000589CE4F090589DE4F07F001258CF7F937E4D7D007C0090065D1207EC7D017F057E00122A747D017FBA7E00122C097C5C7D9E7F1D1244EA229005D11208249005C7
:403C8000D4EDF09005D5E4F0A3E4F09005D874FFF09005D974FFF09005D4E0FF14F0EF60519005D1E475F00112080D1205A2FF9005D9E0FEEE6FFF9005D7EFF09005D7E043
:403CC000FF74432FF582E43400F583E0FF9005D8E0FEEF6EFF9005D9EFF09005D7E0FF74452FF582E43401F583E0FF9005D8EFF080A59005D9E0FF7E009005D5EEF0A3EFD5
:403D0000F09005D5E0FEA3E0FFEF7F00FE9005D5EEF0A3EFF09005D8E0FF7E009005D5E0FCA3E0FDEE4CFEEF4DFF9005D5EEF0A3EFF09005D8E0FF90024AEFF09005D9E071
:403D4000FF900249EFF09005D5E0FEA3E0FF229005B91207EC9005C9740AF09005C9E0FF74BE2FF582E43405F583E4F09005C9E014F09005B91207D4C3EF940AEE94004072
:403D8000577B0A7A00790078009005B91207D41206B6AC00AD01AE02AF03EF2430FF9005BDEFF09005BDE0FF9005C9E0FE74BE2EF582E43405F583EFF09005B91207D47B16
:403DC0000A7A00790078001206B69005B91207EC9005C9E014F0809A7B0A7A00790078009005B91207D41206B6AC00AD01AE02AF03EF2430FF9005BDEFF09005BDE0FF90E8
:403E000005C9E0FE74BE2EF582E43405F583EFF09005C9E0FF74BE2FF9E43405FA7B01124EED229005DCEFF0900510E0FF9005DDEFF0900502E0FF9005DEEFF09005DEE0B2
:403E4000FF9005DDE0FEEEC39F50269005DEE0FF7E00EF24FFFFEE34FFFE9005DDE0FD7C00EFB50508EEB504047F0180027F0080189005DEE0FF9005DDE0FEC3EE9FFFEF0D
:403E8000B40B047F0180027F00EF709C9005DDE0FF9005DEE0FEEEB50714906465E0FFEF20E20B9005DCE0FF906445EFF0229005DDE0FFEFC3940C40059005DDE4F09005E2
:403EC000DCE0FF9005DDE0FE74032EF582E43405F583EFF09005DDE004F09005DDE0FF900510EFF0906465E0FFEF30E1069044D07410F0222020200053657474696E672036
:403F00004D6F64653A20200046726F6E744C616E65477265656E447572202000507265734C6566744275740052696768744C616E65477265656E44757220200050726573D9
:403F4000734C65667442757400446F776E4C616E65477265656E4475722020004C6566744C616E65477265656E4475722020004654473A20004654523A20004654413A2087
:403F8000005254473A20005254523A20005254413A20004C54473A20004C54523A20004C54413A20004454473A20004454523A20004454413A20004E69676874204D6F6475
:403FC0006500125AE09005B6EFF0900651E0FF9005B5EFF09043AAE0FFEF4401FFEFF09043AAE0FFEF4410FFEFF09043BAE0FFEF4401FFEFF09043BAE0FFEF4410FFEFF001
:404000009046F8E0FFEF4402FFEFF09046F9E0FFEF4402FFEFF0905891E0FFEF4403FFEFF07F037E001256149046F8E0FFEF54FDFFEFF09046F9E0FFEF54FDFFEFF0905898
:4040400077E0FFEF4406FFEFF0905882747AF09043A1E0FFEF4401FFEFF09043B1E0FFEF4401FFEFF09043A2E0FFEF4401FFEFF09043B2E0FFEF4401FFEFF09044DB742092
:40408000F09044C37420F09005B6E0FF125937229006517401F090065CE4F07F101257DC7F101257FD7D077F1D124C3A9058967404F0905897E4F090589EE4F0905B07E00F
:4040C000FFEF4418FFEFF0905893E4F0905B88E4F0905B89E4F0905880740AF0905881E4F0905883E4F0905888745BF0905889745EF090588DE4F0904E017414F09005BA17
:404100007410F09005BB7401F07B007A807D067C8D7F021224E1900651E0FFEF75F003A42458F582E43406F583E0FF904E0EEFF0900651E0FFEF75F003A42456F582E434FF
:4041400006F583E0FCA3E0FD7B027A4E790C125BA8900651E0FF123B96229005D1EEF0A3EFF09005D3ECF0A3EDF090058AE0FFEFB4022E9005D1E0FEA3E0FF1251FAEFFD51
:404180007C009005D1E0FEA3E0FFEF25E0FFEE33FE742B2FF58274053EF583ECF0A3EDF0229005D1E0FEA3E0FF900513EFF09005D3E0FEA3E0FF9005D1E0FCA3E0FDED2FC6
:4041C000FFEC3EFE900513E0FD7C00C3ED9FEC9E502A900513E0FF7E001251FA7E00900513E0FDED25E0242BF582E43405F583EEF0A3EFF0900513E004F080B2229005CFFE
:40420000EFF09005D0ECF0A3EDF09005D2EBF09005D47407F0904722E0FFEF5402FF7E00EF4E606B90472074B6F090472074D8F09047207405F0904722E0FFEF5402FF7EE8
:4042400000EF4E70429005CFE0FF904720EFF09005D0E0FEA3E0FFEEFF7E00904720EFF09005D0E0FEA3E0FFEF54FFFF904720EFF09005D2E0FF904720EFF09005D3E0FFF1
:40428000904720EFF0800E9005D47409F080069005D47404F09005D4E0FF229005ABE0FFEF701990059EE0FF90059DEFF07F011252AC9005AB7401F01209FE229005ABE0B9
:4042C000FFEF6401706F9005ABE4F090059DE0FF90059EEFF090052AE0FF12555A90051CE0FF12546A900523E0FF12569A900589E0FF1254FB900524E0FF12552B900526BA
:40430000E0FF125439900529E0FF1253A4900519E0FF12549B900522E0FF125408900587E0FF1255E6900521E0FF1253D6900525E0FF1254CB229005BA1208249005BA12D5
:4043400008041205A2FF9005BEEFF09005BA120804E92401F9EA3400FA1205A2FF9005BDEFF09005BEE0FFD3EF648094B940079005BEE024F9F09005BEE024D0F09005BEBC
:40438000E0FF9005BFEFF09005BFE0FFEFC454F0FF9005BFEFF09005BDE0FFD3EF648094B940079005BDE024F9F09005BDE024D0F09005BFE0FF9005BDE0FEEE4FFF90059B
:4043C000BFEFF09005BFE0FF22C0E0C083C082C085C084C086758600C093759300C0D075D000C006C007A2AFE433FF90060DEFF0D2AF9044F474FDF0900510E0FF90050270
:40440000E0FEEE6F6037906465E0FFEF20E22E900502E0FFEFC3940C4005900502E4F0900502E0FF74032FF582E43405F583E0FF906445EFF0900502E004F080BB90060D73
:40444000E0FFEF24FF92AFD007D006D0D0D093D086D084D085D082D083D0E0329005D51208249005D8ECF0A3EDF09005DAE4F0A3E4F09005D51208049005DAE0FEA3E0FF52
:40448000E92FF9EA3EFA1205A2FFEF60047F0180027F009005D8E0FCA3E0FD9005DAE0FAA3E0FBC3EB9DEA9C50047E0180027E00EE5FFFEF60309005D51208049005DAE067
:4044C000FEA3E0FFE92FF9EA3EFA1205A2FF123E239005DAE475F0011205FA125C90EF20E09080F7808C125239229005B6EFF09005B7ECF0A3EDF09005B6E0FFEFD3941FE4
:404500005003D38001C340057F00125AB69005B6E0FFEF541FFF7E00EF25E0FFEE33FEEF2400FFEE3444FEAA06A9077B01125B999005B9EEF0A3EFF09005B6E0FF7E02EF71
:404540008EF0A4FFAEF0EF2400FFEE3444FEAA06A9077B019005B7E0FEA3E0FFAD07AC06125BA89005B9E0FEA3E0FF22904E14E0FFEF5403FF9005B7EFF09005B7E0FFEFD8
:40458000D394015032904E11E0FF7E009005B5EEF0A3EFF09005B5E0FEA3E0FFEF7F00FE904E10E0FD7C00EE4CFEEF4DFF9005B5EEF0A3EFF0801F7B027A4E7910125B992E
:4045C0009005B5EEF0A3EFF09005B7E0FFEFB40305904E12E0FF900657E0FFEF600590065CE4F09005B5E0FEA3E0FF229005C5EEF0A3EFF090058AE0FFEFB4022A9005C5D9
:40460000E0FEA3E0FFEF25E0FFEE33FE742B2FF58274053EF583E0FEA3E0FF9005C5E0FCA3E0FD122D9E22900513E4F0900513E0FFEFC3942E5033900513E0FFEF25E024E6
:404640002BF582E43405F583E0FEA3E0FF9005C5E0FCA3E0FD122D9E9005C5E475F0011205FA900513E004F080C2227F287E007D007C00124A4C7F03124FD37F057E007D80
:40468000007C00124A4C7F03124FD37F0F7E007D007C00124A4C7F03124FD37F017E007D007C00124A4C7F02124FD37F057E007D007C00124A4C7F061252AC7F0E1252AC94
:4046C0007F2C1252AC7F081252AC7F011252AC7F0C1252AC7F031252AC7F057E007D007C00124A4C229005B71207EC9005C31207E09005C71207D412001DC004C005C0067D
:40470000C0079005BB1207E09005B71207D412001DA804A905AA06AB07D007D006D005D004120112C004C005C006C0079005BB1207E09005BF1207D412001DA804A905AAF7
:4047400006AB07D007D006D005D00412021B9005C31207E0120021229044C87408F090050FE0FF90046BE0FEEEB5071790046AE0FFEF60089005B57496F080429005B5E4C5
:40478000F0803B90050FE0FF90046BE0FEEEC39F501590046BE0FF90050FE0FEC3EE9FFF9005B5EFF0801790046BE0FFC374969FFF90050FE0FEEF2EFF9005B5EFF09044E6
:4047C000C07408F09005B5E0FF229003327424F07D017F0012483B7D037F0112483B7D057F0312483B900339742CF07D087F0112483B7D0A7F0412483B7D0C7F0012483B03
:404800007D0E7F0112483B7D107F2C12483B7D127F0312483B7D147F0012483B7D167F0012483B7D187F0012483B90034C742CF0900248E0FF7D1B12483B229005D5EFF0B0
:404840009005D6EDF07B017A0579D7C003C002C0017BFF7A5C793E9005DC1208249005D5E0FF7E009005DFEEF0A3EFF0D001D002D00312105F9005D7E0FF9005D6E0FE740F
:40488000322EF582E43403F583EFF09005D6E004F09005D8E0FF9005D6E0FE74322EF582E43403F583EFF022125AF51247587E0090003FEEF0A3EFF090003FE0FEA3E0FF0E
:4048C000D3EF947FEE940040489004EBE0FFEF642360041250AA227E007F807D007B017A0279B21208B07B017A04796CC003C002C0017B017A0279B2A801AC02AD03D0016C
:40490000D002D0037E007F801209981250AA123AAC22125767125589EF705512533B9005B6EFF09005B6E0FFEF6407703E904722E0FFEF5402FF7E00EF4E70097F017E00BE
:4049400012561480E8904722E0FFEF5402FF7E00EF4E600D904722E0FFEF1313543FFF80027FFFEF70059005B6E4F0125A7680069005B67404F09005B6E0FF229005ABE482
:40498000F09005187402F090059EE4F090059DE4F090058B7401F07D057C007F007E0012415A900533E0FEA3E0FFEF4E70077F007E001245EC1231E27F0112555A90052A79
:4049C0007401F07F011254FB9005897401F07F011253A49005297401F07F011255E69005877401F0227F0012569A7F0012555A7F001254397F001254FB7F001254CB7F00E4
:404A00001255E67F001254087F001253A47F0112546A7F0112552B7F011253D67F0112549B7FF47E017D007C00124A4C7F0012546A7F0012552B7F001253D67F0012549BE9
:404A40007FF47E017D007C00124A4C2290FFFC12085F1207EC8515838516821207D4D3EF9400EE9480402F90066C1207D4125300851583851682C083C0821207D4EF240077
:404A8000FFEE3480FEED34FFFDEC34FFFCD082D0831207EC80BF9006621207D48515838516821207E012062B12530090000412085F221257679005B674FFF0125589EF707A
:404AC0004A7F01124CF4EF6407703B7B017A0679737D02124B17EFB4021D9005B6E4F0904722E0FFEF5402FF7E00EF4E70187F017E0012561480E8904722E0FFEF5402FF7C
:404B00007E00EF4E60C5125A7680069005B67404F09005B6E0FF229005B71208249005BAEDF09005BBE4F09005BAE0FF9005BBE0FEEEC39F5040904722E0FFEF5401FF7E7F
:404B400000EF4E6003D38001C340097F017E0012561480E2904720E0FF9005B71208049005BBE0FEE92EF9E43AFAEF1205E89005BBE004F080B19005BBE0FF22D2AF9044DA
:404B8000F474FDF012581E1248A89005ABE0FFEFB4010F900511E0FFEF6020900511E4F08019900511E0FFEF6011900511E4F090058CE004F0125C76124DA6900518E0FF74
:404BC000EFB401081222711238BF80BB900518E0FFEFB402B212566E80AD229005C1EEF0A3EFF09005C3ECF0A3EDF09005C3E0FCA3E0FD9005C1E0FEA3E0FFEF25E0FFEE63
:404C000033FE74632FF58274043EF583ECF0A3EDF090058A7402F09005C1E0FEA3E0FFEF249CFFEE34FFFE1245EC9005C1E0FEA3E0FF7DBC7C011218C4229005B5EFF090BC
:404C400005B6EDF09005B6E0FFEFD394075003D38001C340057F00125AB69005B5E0FFEFD3941F5003D38001C340057F00125AB69005B6E0FFEF5407FF7E00EF75F020A4CE
:404C8000FFAEF09005B5E0FEEE541FFE74802EF582E43444F583EFF0229005D1EFF0905120E0FFEF4420FFEFF0905120E0FFEF54BFFFEFF07F007E00125614905120E0FFF3
:404CC000EF54F0FFEFF0905120C083C082E0FF9005D1E0FEEE4410FEEF4EFFD082D083EFF07F017E00125614905120E0FFEF54EFFFEFF0229005B7EFF09005B87407F090FB
:404D00004722E0FFEF5402FF7E00EF4E603590472074B6F090472074E1F0904720740EF0904722E0FFEF5402FF7E00EF4E700C9005B7E0FF904720EFF0800E9005B8740935
:404D4000F080069005B87404F09005B8E0FF229005B9EFF09005BAEDF09005B9E0FFEF1208394D72004D7F014D8C024D990300004DA59005BAE0FFEF2480FF1252AC22902E
:404D800005BAE0FFEF24C0FF1252AC229005BAE0FFEF2494FF1252AC229005BAE0FFEF24D4FF1252AC2290058CE0FFEFB401129005187401F01238BF7F011252AC1209FE8B
:404DC0002290058CE0FFEFB4032E90058CE4F0900588E4F090058A7401F090058AE0FF7E00900533EEF0A3EFF07F007E001245EC7F011252AC12497C229005B6EFF0125A50
:404E0000E09005B7EFF09046F8E0FFEF4403FFEFF09046F9E0FFEF4403FFEFF09005B6E0FF905892EFF07F037E001256149046F8E0FFEF54FCFFEFF09046F9E0FFEF54FC2E
:404E4000FFEFF09005B7E0FF12593722125AE09005B5EFF09043A0E0FFEF4408FFEFF09043B0E0FFEF4408FFEFF090470174C8F09043ACE0FFEF4410FFEFF09043BCE0FF19
:404E8000EF4410FFEFF0904700E0FFEF5420FF7E00EF4E60F19005B5E0FF125937229005B51207EC9005B51207D49006531207E012061D9005B51207EC90065D1207D4EC08
:404EC000120331C004C005C006C0079005B51207D4EC120331D003D002D001D00012021B9005B91207EC9005B91207D4229005CA1208249005CD7401F09005CA12080412D5
:404F000005A2FF9005CEEFF09005CEE0FFEF602A9005CEE0FF1252769005CA1208049005CDE0FFE92FF9E43AFA1205A2FF9005CEEFF09005CDE004F080CE229005B5E4F00D
:404F40009005B5E0FFEFD3941F503D9005B5E0FF7E02EF8EF0A4FFAEF0EF2400FFEE3444FEAA06A9077B01C003C002C0017BFF7A5C799AAC02AD01D001D002D003125BA8CD
:404F80009005B5E004F080B8229005B8EFF09005B8E0FFEFC3940250399005B8E0FFEF25E024A2F582E4345CF583E493FE740193FF8F828E83C083C082E0FF9005B8E0FEDA
:404FC000EE905CA693FEEEF4FEEF5EFFD082D083EFF0229005BDEFF0905120E0FFEF549FFFEFF0905120E0FFEF54F0FFEFF0905120C083C082E0FF9005BDE0FEEE4410FE37
:40500000EF4EFFD082D083EFF07F017E00125614905120E0FFEF54EFFFEFF0229005B7EFF09005B7E0FFEFC3940250369005B7E0FFEF25E024A2F582E4345CF583E493FE43
:40504000740193FF8F828E83C083C082E0FF9005B7E0FEEE905CA693FEEF4EFFD082D083EFF022125AE09005B5EFF0906493E0FFEF4420FFEFF0906491E0FFEF4410FFEFE5
:40508000F09044C07408F0906495E0FFEF4410FFEFF09044D87410F09044C07410F0125A079005B5E0FF12593722125AE09005BAEFF0906492E0FFEF4401FFEFF090649278
:4050C000E0FFEF54FEFFEFF09005BAE0FF1259379044C87408F090046BE4F090050FE4F090046AE4F0900468E4F09044C07408F0227C367DB57F031244EA7D077F03124CC1
:405100003A900469E4F09064837472F09064817420F07C437DC97F041244EA7D077F04124C3A9064207406F09064307447F09064857402F022C2D5E830E70FB2D5E4C39BFB
:40514000FBE49AFAE499F9E498F8EC30E717B2D512516B1206B6E4C39BFBE49AFAE499F9E498F880031206B630D50DE4C39FFFE49EFEE49DFDE49CFC227B0C7A0179CF1256
:405180005BF29005B5EFF09005B5E0FFEF5407FF90586EEFF09005B5E0FFEFC4540FFFEF540FFF90586FEFF090516D7420F0905B007402F09058767466F0229005B5EFF077
:4051C000900657E0FFEF600C90065CE0FF9005B6EFF0800E904E01E0FFEF5401FF9005B6EFF09005B6E0FFEF640160089005B5E0FFEF60CC9005B6E0FF229005D5EEF0A373
:40520000EFF0125AE09005D8EFF01258B49005D5E0FEA3E0FFEF2400FFEE3480FE8F828E83E0FF9005D7EFF0125C0A9005D8E0FF1259379005D7E0FF22125AE09005DCEF92
:40524000F0906495E0FFEF4401FFEFF0906495E0FFEF54FEFFEFF09005DCE0FF1259379044C87410F0900502E4F0900510E4F09044C07410F0229005CFEFF0122F189005FC
:40528000CFE0FFEFC4540FFF9005D0EFF09005D0E0FF124C999005CFE0FFEF540FFF9005D0EFF09005D0E0FF124C99229005BBEFF0122F189005BBE0FFEFC4540FFF900516
:4052C000BCEFF09005BCE0FF124FD39005BBE0FFEF540FFF9005BCEFF09005BCE0FF124FD3229005B5EEF0A3EFF07B027A4479009005B5E0FEA3E0FFAD07AC06125BA822D4
:40530000EC4D4E700D78FCEF24E950032840FD2200007BF178DA0000EF28FF78FFEE38FEED38FDEC38FC50E7EF2BFFEE38FEED38FDEC38FC40F222050203049005B774078F
:40534000F0904722E0FFEF5402FF7E00EF4E601490472074B6F090472074E0F0904720740DF080069005B77404F09005B7E0FF22758600EF4E6027EF60010E7593009005FD
:40538000BFE0F595A3E0F585A3E0F5848B938A838982E0A30586F0A31586DFF6DEF4E4F593F595229005B5EFF0905130E0FFEF547FFF9005B6EFF09005B5E0FFEFC4333354
:4053C000335480FFEF5480FF9005B6E0FEEF4EFF905130EFF0229005B5EFF0905100E0FFEF547FFF9005B6EFF09005B5E0FFEFC43333335480FFEF5480FF9005B6E0FEEF78
:405400004EFF905100EFF0229005B5EFF0905130E0FFEF54F7FF9005B6EFF09005B5E0FFEF33333354F8FFEF5408FF9005B6E0FEEF4EFF905130EFF0229005B5EFF09051FA
:4054400030E0FFEF54BFFF9005B6EFF09005B5E0FFEFC4333354C0FFEF5440FF9005B6E0FEEF4EFF905130EFF0229005B5EFF0905100E0FFEF54BFFF9005B6EFF09005B546
:40548000E0FFEFC4333354C0FFEF5440FF9005B6E0FEEF4EFF905100EFF0229005B5EFF0905130E0FFEF54DFFF9005B6EFF09005B5E0FFEFC43354E0FFEF5420FF9005B6C5
:4054C000E0FEEF4EFF905130EFF0229005B5EFF0905100E0FFEF54DFFF9005B6EFF09005B5E0FFEFC43354E0FFEF5420FF9005B6E0FEEF4EFF905100EFF0229005B5EFF038
:40550000905130E0FFEF54FBFF9005B6EFF09005B5E0FFEF25E025E0FFEF5404FF9005B6E0FEEF4EFF905130EFF0229005B5EFF0905130E0FFEF54EFFF9005B6EFF090052D
:40554000B5E0FFEFC454F0FFEF5410FF9005B6E0FEEF4EFF905130EFF0229005B5EFF0905100E0FFEF54EFFF9005B6EFF09005B5E0FFEFC454F0FFEF5410FF9005B6E0FEFA
:40558000EF4EFF905100EFF0229005CF7404F0125AE09005D0EFF0900678E0FFEF700B9006787401F09005CFE4F09005D0E0FF1259379005CFE0FF227FFE125B777FFE1234
:4055C0005B87125AE09005B5EFF0906492E0FFEF4410FFEFF09005B5E0FF125937125BB57F00125B67229005B5EFF0905130E0FFEF54FDFF9005B6EFF09005B5E0FFEF25AD
:40560000E0FFEF5402FF9005B6E0FEEF4EFF905130EFF022EEFA900666E0F88FF0A4FFAEF0E88AF0A42EFEE5F03400FDEF24C9FF78FFEE38FEED38FDE438FC5003025300C4
:4056400022ACEAADA08B938A838982E0F96017A3E0F5EAA3E0F5A0A3E060F4FAA3E0F8A3E0F2DAF8D9E98DA08CEAE4F593229005B4E0FFEF600B9005B4E4F0125C611242DD
:405680009B9005ABE0FFEF700412147D229005ABE0FFEFB401031249E5229005B5EFF0905130E0FFEF54FEFF9005B6EFF09005B5E0FFEF5401FF9005B6E0FEEF4EFF9051AB
:4056C00030EFF022C0E0C083C082C085C084C086758600C0937593009005127401F0D093D086D084D085D082D083D0E032C0E0C083C082C085C084C086758600C0937593F0
:40570000009005B47401F0D093D086D084D085D082D083D0E032C0E0C083C082C085C084C086758600C0937593009005117401F0D093D086D084D085D082D083D0E0327F15
:40574000001251BBEF60F812456C90051FEEF0A3EFF090051FE0FEA3E0FFE4FCFD124E9E9005B01207EC22125AE09005CFEFF09043A0E0FFEF4408FFEFF09043B0E0FFEF47
:405780004408FFEFF09005CFE0FF125937229005B7E4F09005B7E0FFEFC3940250109005B7E0FF124F899005B7E004F080E590067974FFF022EFB40A07740D1257C0740ABB
:4057C000309811A899B8130CC2983098FDA899C298B811F63099FDC299F599229005B5EFF0904082C083C082E0FF9005B5E0FEEE54F8FEEF4EFFD082D083EFF0229005B503
:40580000EFF0904102C083C082E0FF9005B5E0FEEE54F8FEEF4EFFD082D083EFF022125897125BE6125A8C125B09125C96125B2F125B42125A1E125AA112497C229005B525
:40584000EEF0A3EFF07B027A4479029005B5E0FEA3E0FFAD07AC06125BA8229005B5EEF0A3EFF07B027A4479049005B5E0FEA3E0FFAD07AC06125BA8221249129005B5EF7C
:40588000F09005B5E0FFEF7008124AB29005B5EFF09005B5E0FF22900652E0FFEF7011900658E0FFEF70031240909006527401F0123FC222904702E0FFEF4401FFEFF090C2
:4058C0004702E0FFEF5402FF7E00EF4E60F1229005B6EFF012578E9005B6E0FF12501C9005B6E0FF900679EFF022905131E0FFEF5410FF7E00EEC4F854F0C868FEEFC45427
:405900000F48FF22905101E0FFEF5410FF7E00EEC4F854F0C868FEEFC4540F48FF22EC4D6011ED60010C8B938A838982E4F0A3DDFCDCFA75930022EF54016004D2AF80028E
:40594000C2AFEF5402FF9044F4E054FD4FF022905131E0FFEF5480FF7E00EF7807CEC313CE13D8F9FF22905131E0FFEF5408FF7E00EF7803CEC313CE13D8F9FF2290513156
:40598000E0FFEF5420FF7E00EF7805CEC313CE13D8F9FF22905101E0FFEF5420FF7E00EF7805CEC313CE13D8F9FF22905101E0FFEF5480FF7E00EF7807CEC313CE13D8F9FC
:4059C000FF22905131E0FFEF5404FF7E00EF7802CEC313CE13D8F9FF22905131E0FFEF5440FF7E00EF7806CEC313CE13D8F9FF22905101E0FFEF5440FF7E00EF7806CEC35D
:405A000013CE13D8F9FF229043A2E0FFEF4402FFEFF09043B2E0FFEF4402FFEFF022125ACB9044C07408F09044C07410F01250AA125239229005B5EFF09005B5E0FFEFC471
:405A40003354E0FF904480EFF0229005B5EFF09005B5E0FFEFC43354E0FF904481EFF0229005B5EFF09005B5E0FFEFC43354E0FF904482EFF022125AE09005CFEFF09006C3
:405A800078E4F09005CFE0FF12593722900677E0FFEF70091255B89006777401F0125BC222900675E0FFEF700912466B9006757401F0125BDA2290FFFF12085FEFF09046B3
:405AC000EA7401F090000112085F22900467E0FFEF70091250F19004677401F0125063229044F4E0F84402F0E85402FF10AF012274014FFF22124758EF600D90046CE0FF89
:405B0000EF642460031250AA22125C4C7E567FC41252E27F07125A34125C4522905131E0FFEF5402FF7E00EEC313FEEF13FF22125C5A7E567FED12583D7F07125A4A125C5A
:405B40005322125C6F7E577F1612585B7F07125A60125C68229005BAEFF09005BAE0FF9005BAEFF080FE229005B6EFF09005B6E0FF906482EFF0229005B6EFF09005B6E010
:405B8000FF906421EFF0229005B6EFF09005B6E0FF906401EFF0228B938A838982E0FFA3E0FE759300228B938A838982EDF0A3ECF075930022125C84EF30E305125C8A8099
:405BC000F422906472E0FFEF4480FFEFF022905131E0FFEF5401FF7E00227F0C1252AC9006767401F022904E00E0FFEF4401FFEFF0228B938A838982E0759300FF228B9347
:405C00008A838982EDF075930022904702E0FFEF54FEFFEFF0227B027A407980125B9922904082E0FFEF5407FF227B027A417900125B9922904102E0FFEF5407FF2225300D
:405C400032580030309044C07401F0229044C87401F0229044C07402F0229044C87402F0229044D87402F0229044C07404F0229044C87404F0229044D87404F0221258792B
:405C8000124E4C22906462E0FF22906441E0FF22906465E0FF22125C7D2280FE3222323232325B0343244000005140002001000004800105000B0001140008000140000AD4
:405CC00000014C00020001500000200052600803EC00060104800803F400800000000000000000000000000000000000000000000000000000000000000000000000000031
:405D00000000000000000000000000000000000000000000000000000000000000000000000000000000000000000000000000000000000000000000000000000000000063
:405D40000000000000000000000000000000000000000000000000000000000000000000000000000000000000000000000000000000000000000000000000000000000023
:405D800000000000000000000000000000000000000000000000000000000000000000000000000000000000000000000000000000000000000000000000000000000000E3
:405DC00000000000000000000000000000000000000000000000000000000000000000000000000000000000000000000000000000000000000000000000000000000000A3
:0200000480007A
:40000000180064048138820D8372850F0100680473060C0D010F02147316041B011C2A1E44260828032A042C802E152F04303032C03301340F35023704380A3A203E0140FA
:4000400004464049FF4A074BFF4C404D204EF04F055008580459045A045C415D015F01604061A862406320820383208410851186AC8706880989118AD08B0E8CDC8E228F1A
:4000800013910C9313940C9671970C98149B08A320A810AA40AB10AE20B110B2E0B520B61FB70FBA08BB80BF11C046C5ECC620C80BC9FFCAFFCBFFCF01D018D418D604D8B2
:4000C00004D904DA04DB04DC11DD12DF01E040E240E440E540E680E880EA80EC80EE8001013800040425070909800A100D200E10100A114013081560182419041A401C01D9
:400100001E102140221424482580270128022C882F083210350436203701380839803B083C043D6A3E10424046804D094F2050025110522057105F02654067488740C0F469
:40014000C265C4C7CAA8CCE4CEF8D081D220D680D8B001024E000801500306051C091C0A040F6012011360156019641A041B19212823862401256026022B6030023103329D
:4001800004331C34083580360137603E143F014036410242054401450C460E480549FF4AFF4BFF4C624DA04EF04F41500C52805401580459045A045B045C135D215F016674
:4001C00040670269106A306B106D106E106F1282018F019A01A701AF02B101B302B401BF01D602D710D804D904DB04DC32DD10DF010103440102042108100D020F0815086C
:4002000018081D021E281F40210423402404275228122B102D202E082F8037153A803C023E544508460847444D204E044F88548059405D095F40682869146A9472227308EC
:40024000750276808014834087409041914199089E809F02A114A310A480A521A610A708AD40AE10B204B402C058C252C420CAEACCE0CEF8D070D230D6D8EA8001040F017D
:40028000020301050309031001210123022401280134013703580459045C115F010105440401052807010A800D020E2510281622171019201A081D4A1E7C200324202501B9
:4002C000268027092B802D082E5135223684380139143C043E224010420C430845144D42552057085C505D025F0867408740904491549281942096489A229B109C029D40CD
:400300009E089F01A028A114A401A529A788AA04B201B308C0F0C2F8C4E6CAF1CCF0CEE7D060D210D6F0D880010704A908AB80B402E002010903A620E002EA10010B01A6EA
:4003400020010D038620E402EA1001180439203F1059045F010119022620A6200140083342361037023B208702CCF0CE10E6400141088340870297209F40A702B210E210B2
:40038000E68001420A0502570487109720A304AB04C020D440E640EE200143048540A902E040EC2001440405047F10C004DE0101450487109720B504EA0801460405044518
:4003C00002C004D0010147048502A502B504EA080148032540A540C820015003001E081E0A0201510200FF0103000000040400000800000002100000010000040018230066
:400400001C0023001F40200033BF0C003F000023043C0082000800000C04000003A70018081C00A12C800F380040101F00022A80000040103502000000E0B00C1AFFFFFFF5
:400440000000F0440C000000010004000404040411110001000000000000C00000004002000000000000000000000000000000000000000000F0F000000000000400080412
:400480000400040000000000200000200000000000000000000B0B0000000000007F7F000000000000FFFF0000000000020000020000000020000000BB00180100000000EA
:4004C00000000000000000000000000000000000000000000000000000000000000000000000000000000000000000000000000000000000000000000000000000000000FC
:4005000000000000000000000000000000000000000000000000000000000000000000000000000000000000000000000000000000000000000000000000000000000000BB
:40054000000000000000000000000000000000000000000000000000000000000000000000000000000000000000000000000000000000000000000000000000000000007B
:40058000000000000000000000000000000000000000000000000000000000000000000000000000000000000000000000000000000000000000000000000000000000003B
:0200000490006A
:0400000000004005B7
:0200000490105A
:04000000BC90ACAF55
:0200000490303A
:02000000F5B059
:0200000490501A
:0C00000000011E02806903011E32761907
:0200000490402A
:4000000000000000000000000000000000000000000000000000000000000000000000000000000000000000000000000000000000000000000000000000000000000000C0
:00000001FF
