:100000000205A7008F828E83E0540100000070F883
:100010002278FFE4F6D8FD020605BB010689828A34
:1000200083E0225002E722BBFE02E32289828A8318
:10003000E49322BB010689828A83F0225002F722D0
:10004000BBFE01F322C5F0F8A3E028F0C5F0F8E507
:1000500082158270021583E038F022EF2BFFEE3A12
:10006000FEED39FDEC38FC22E88FF0A4CC8BF0A437
:100070002CFCE98EF0A42CFC8AF0EDA42CFCEA8E7A
:10008000F0A4CDA8F08BF0A42DCC3825F0FDE98F9D
:10009000F0A42CCD35F0FCEB8EF0A4FEA9F0EB8F94
:1000A000F0A4CFC5F02ECD39FEE43CFCEAA42DCE61
:1000B00035F0FDE43CFC2275F008758200EF2FFF5F
:1000C000EE33FECD33CDCC33CCC58233C5829BED30
:1000D0009AEC99E58298400CF582EE9BFEED9AFD34
:1000E000EC99FC0FD5F0D6E4CEFBE4CDFAE4CCF9E4
:1000F000A88222B800C1B90059BA002DEC8BF08457
:10010000CFCECDFCE5F0CBF97818EF2FFFEE33FE24
:10011000ED33FDEC33FCEB33FB10D703994004EBDC
:1001200099FB0FD8E5E4F9FA227818EF2FFFEE33A8
:10013000FEED33FDEC33FCC933C910D7059BE99ABA
:100140004007EC9BFCE99AF90FD8E0E4C9FAE4CC4B
:10015000FB2275F010EF2FFFEE33FEED33FDCC33B5
:10016000CCC833C810D7079BEC9AE899400AED9B9E
:10017000FDEC9AFCE899F80FD5F0DAE4CDFBE4CC7D
:10018000FAE4C8F922EF4BFFEE4AFEED49FDEC48D8
:10019000FC22EB9FF5F0EA9E42F0E99D42F0E89CDC
:1001A00045F022E8600FECC313FCED13FDEE13FEE7
:1001B000EF13FFD8F122E8600FEFC333FFEE33FEF9
:1001C000ED33FDEC33FCD8F122BB010789828A8331
:1001D0000202035005E9F80202BCBBFE05E9F80281
:1001E00002C889828A830202D4BB010789828A837A
:1001F00002021B5005E9F80202E4BBFE05E9F80221
:1002000002F022E0FCA3E0FDA3E0FEA3E0FF22E079
:10021000F8A3E0F9A3E0FAA3E0FB22ECF0A3EDF0F1
:10022000A3EEF0A3EFF022E0FBA3E0FAA3E0F922B3
:10023000EBF0A3EAF0A3E9F022E493FB740193FA54
:10024000740293F922D083D082F8E493701274017F
:1002500093700DA3A393F8740193F5828883E473DC
:100260007402936860EFA3A3A380DFE50C2582F5F9
:1002700082E50B3583F583B50B0485820C2210AF24
:100280000685820CF50B2285820CF50BD2AF22EC91
:100290008EF0A4CCC5F0CCCDF8EFA4CEC5F02DFDEA
:1002A000E43CFCE8A42EC8C5F03DFDE43CFCEFA412
:1002B000FFE5F028FEE43DFDE43CFC22E6FC08E618
:1002C000FD08E6FE08E6FF22E2FC08E2FD08E2FE89
:1002D00008E2FF22E493FC740193FD740293FE7420
:1002E0000393FF22ECF608EDF608EEF608EFF6228F
:1002F000ECF208EDF208EEF208EFF2227B007A460B
:1003000079E8120817EF4405FD7B007A4679E81278
:100310000823750A00E50AC39408503AAF0AEF753E
:10032000F005A4243AF582E43408F583AF82AE8365
:100330008E088F09AE08AF098F828E83120239AE04
:1003400008AF098F828E83740393FC740493FD12AB
:1003500006E2050A80BF7B087A0079001207A57BB8
:10036000017A507903120817EF4402FD7B017A509D
:1003700079031208237B017A507913120817EF448E
:1003800002FD7B017A5079131208239043A0E0FF0D
:10039000EF4440FF9043A0EFF09043C2E0FFEF44F2
:1003A00010FF9043C2EFF07B087A007998C003C039
:1003B00002C0017B007A517902900057120230D0BE
:1003C00001D002D0037F087E001207717B087A00FB
:1003D00079A0C003C002C0017B007A51791290005D
:1003E00057120230D001D002D0037F087E001207DE
:1003F000717B087A0079A8C003C002C0017B007A33
:10040000517922900057120230D001D002D0037FE0
:10041000087E001207717B087A0079B0C003C00221
:10042000C0017B007A517932900057120230D0011E
:10043000D002D0037F087E001207719044F474014B
:10044000F0904322E0FFEF4408FF904322EFF0904A
:1004500046ECE0FFEFC394055006904689743AF0ED
:100460009048007431F01204A390480074B1F01267
:10047000073B7B007A4379A0C003C002C0017B0028
:100480007A4379B0900057120230D001D002D003E5
:100490007F0E7E001207719043B0E0FFEF54FDFF26
:1004A000EFF0227B007A4079807DF47C2D120808E1
:1004B0009040827419F09043007402F090400074F0
:1004C00008F09042007403F07B0C7A01790812085E
:1004D000179046A1EFF07B007A4279227D087C00DC
:1004E0001208087B007A4279207D517C121208089C
:1004F000900056E4F07F197E007D007C0090005251
:1005000012021B900052120203D3EF9400EE9400EB
:10051000404E900056E0FFEF64036044904225E0B7
:10052000FFEF5401FF7E00900056E0FEEE25E0FE56
:10053000EE4FFFEF5403FF900056EFF07FE07E0197
:100540007D007C001207009000521202037BFF7AAC
:10055000FF79FF78FF12005B90005212021B80A30C
:10056000900052120203EF4E70057F031207F67BD4
:10057000007A4079047D007C0112080890400474E0
:1005800007F0904006E4F09040087448F090400472
:10059000E4F09040017402F09043A2E0FFEF4401C8
:1005A000FF9043A2EFF022759300780075834675A3
:1005B00082E8E04401F0009046ECE0F99046FAE071
:1005C000FAB903225420B40012B8001AEA901FFFAF
:1005D000F07401901FFEF09046F6F0901FFEE06070
:1005E00005901FFFE0FA90480074C0F075810C90F0
:1005F000000078007920E4F0A3D8FCD9FAEA900052
:100600004DF0020011750B1F750CFD1206941202BD
:10061000FC02064F02082FE493A3F8E493A34003DF
:10062000F68001F208DFF48029E493A3F85407244C
:100630000CC8C333C4540F4420C8834004F456800C
:100640000146F6DFE4800B01020408102040809090
:1006500007D2E47E019360BCA3FF543F30E5095408
:100660001FFEE493A360010ECF54C025E060A840B4
:10067000B8E493A3FAE493A3F8E493A3C8C582C8AB
:10068000CAC583CAF0A3C8C582C8CAC583CADFE980
:10069000DEE780BE900052E4F0900052E0FFEFD31E
:1006A000941F503D900052E0FF7E02EF8EF0A4FFB9
:1006B000AEF0EF2400FFEE3444FEAA06A9077B014A
:1006C000C003C002C0017BFF7A0679FBAC02AD011A
:1006D000D001D002D00312080A900052E004F0804A
:1006E000B822EC4D6011ED60010C8B938A838982F6
:0E06F000E4F0A3DDFCDCFA7593002280FE32FC
:10070000EC4D4E700D78FCEF24E950032840FD229B
:1007100000007BF178DA0000EF28FF78FFEE38FE6A
:10072000ED38FDEC38FC50E7EF2BFFEE38FEED38EE
:10073000FDEC38FC40F222050203047B0C7A0179BF
:10074000CF120817900052EFF0900052E0FFEF54E4
:1007500007FF90586EEFF0900052E0FFEFC4540F87
:10076000FFEF540FFF90586FEFF09058767444F0FD
:1007700022758600EF4E6027EF60010E75930090A2
:100780000057E0F595A3E0F585A3E0F5848B938A07
:10079000838982E0A30586F0A31586DFF6DEF4E404
:1007A000F593F59522ACEAADA08B938A838982E01C
:1007B000F96017A3E0F5EAA3E0F5A0A3E060F4FA7E
:1007C000A3E0F8A3E0F2DAF8D9E98DA08CEAE4F529
:1007D0009322440049016E360044004400005DC08D
:1007E0004100481844004E2EE0000043005A00002B
:1007F000004100600000900057EFF0900057E0FFCC
:10080000900057EFF080FE228B938A838982EDF06F
:10081000A3ECF0759300228B938A838982E0759311
:1008200000FF228B938A838982EDF075930022D298
:10083000AF9044F474FDF080FE220051400030007F
:1008400051C000100051F000100100001000011410
:100850000008000140000A00014C000200015000A5
:02086000002076
:00000001FF
