:1000000002055D008F828E83E0540100000070F8CD
:100010002278FFE4F6D8FD0205BBBB010689828A7F
:1000200083E0225002E722BBFE02E32289828A8318
:10003000E49322BB010689828A83F0225002F722D0
:10004000BBFE01F322C5F0F8A3E028F0C5F0F8E507
:1000500082158270021583E038F022EF2BFFEE3A12
:10006000FEED39FDEC38FC22E88FF0A4CC8BF0A437
:100070002CFCE98EF0A42CFC8AF0EDA42CFCEA8E7A
:10008000F0A4CDA8F08BF0A42DCC3825F0FDE98F9D
:10009000F0A42CCD35F0FCEB8EF0A4FEA9F0EB8F94
:1000A000F0A4CFC5F02ECD39FEE43CFCEAA42DCE61
:1000B00035F0FDE43CFC2275F008758200EF2FFF5F
:1000C000EE33FECD33CDCC33CCC58233C5829BED30
:1000D0009AEC99E58298400CF582EE9BFEED9AFD34
:1000E000EC99FC0FD5F0D6E4CEFBE4CDFAE4CCF9E4
:1000F000A88222B800C1B90059BA002DEC8BF08457
:10010000CFCECDFCE5F0CBF97818EF2FFFEE33FE24
:10011000ED33FDEC33FCEB33FB10D703994004EBDC
:1001200099FB0FD8E5E4F9FA227818EF2FFFEE33A8
:10013000FEED33FDEC33FCC933C910D7059BE99ABA
:100140004007EC9BFCE99AF90FD8E0E4C9FAE4CC4B
:10015000FB2275F010EF2FFFEE33FEED33FDCC33B5
:10016000CCC833C810D7079BEC9AE899400AED9B9E
:10017000FDEC9AFCE899F80FD5F0DAE4CDFBE4CC7D
:10018000FAE4C8F922EF4BFFEE4AFEED49FDEC48D8
:10019000FC22EB9FF5F0EA9E42F0E99D42F0E89CDC
:1001A00045F022E8600FECC313FCED13FDEE13FEE7
:1001B000EF13FFD8F122E8600FEFC333FFEE33FEF9
:1001C000ED33FDEC33FCD8F122BB010789828A8331
:1001D0000202035005E9F80202BCBBFE05E9F80281
:1001E00002C889828A830202D4BB010789828A837A
:1001F00002021B5005E9F80202E4BBFE05E9F80221
:1002000002F022E0FCA3E0FDA3E0FEA3E0FF22E079
:10021000F8A3E0F9A3E0FAA3E0FB22ECF0A3EDF0F1
:10022000A3EEF0A3EFF022E0FBA3E0FAA3E0F922B3
:10023000EBF0A3EAF0A3E9F022E493FB740193FA54
:10024000740293F922D083D082F8E493701274017F
:1002500093700DA3A393F8740193F5828883E473DC
:100260007402936860EFA3A3A380DFE50C2582F5F9
:1002700082E50B3583F583B50B0485820C2210AF24
:100280000685820CF50B2285820CF50BD2AF22EC91
:100290008EF0A4CCC5F0CCCDF8EFA4CEC5F02DFDEA
:1002A000E43CFCE8A42EC8C5F03DFDE43CFCEFA412
:1002B000FFE5F028FEE43DFDE43CFC22E6FC08E618
:1002C000FD08E6FE08E6FF22E2FC08E2FD08E2FE89
:1002D00008E2FF22E493FC740193FD740293FE7420
:1002E0000393FF22ECF608EDF608EEF608EFF6228F
:1002F000ECF208EDF208EEF208EFF2227B007A460B
:1003000079E8120A0BEF4405FD7B007A4679E81282
:100310000A17750A00E50AC3940A503AAF0AEF7546
:10032000F005A42440F582E4340AF583AF82AE835D
:100330008E088F09AE08AF098F828E83120239AE04
:1003400008AF098F828E83740393FC740493FD12AB
:1003500007E7050A80BF7B087A00790012089A7BBC
:10036000017A507903120A0BEF4402FD7B017A50A7
:100370007903120A177B017A507913120A0BEF44A2
:1003800002FD7B017A507913120A179043A0E0FF17
:10039000EF4440FF9043A0EFF09043C2E0FFEF44F2
:1003A00010FF9043C2EFF07B087A007998C003C039
:1003B00002C0017B007A517912900057120230D0AE
:1003C00001D002D0037F087E001207817B087A00EB
:1003D00079A0C003C002C0017B007A51793290003D
:1003E00057120230D001D002D0037F087E001207DE
:1003F000819044F47401F0904322E0FFEF4408FF41
:10040000904322EFF09046ECE0FFEFC394055006D6
:10041000904689743AF09048007431F01204599073
:10042000480074B1F012074B7B007A4379A0C003F7
:10043000C002C0017B007A4379B0900057120230AD
:10044000D001D002D0037F0E7E001207819043B00E
:10045000E0FFEF54FDFFEFF0227B007A4079807DD2
:10046000F47C2D1209E39040827419F090430074DB
:1004700002F09040007408F09042007403F07B0C8E
:100480007A017908120A0B9046A1EFF07B007A42BC
:1004900079227D087C001209E37B007A4279207D75
:1004A000517C121209E3900056E4F07F197E007D22
:1004B000007C0090005212021B900052120203D3E3
:1004C000EF9400EE9400404E900056E0FFEF64037E
:1004D0006044904225E0FFEF5401FF7E00900056FB
:1004E000E0FEEE25E0FEEE4FFFEF5403FF900056D6
:1004F000EFF07FE07E017D007C001208009000524A
:100500001202037BFF7AFF79FF78FF12005B9000F5
:100510005212021B80A3900052120203EF4E70058C
:100520007F031209A17B007A4079047D007C0112CF
:1005300009E39040047407F0904006E4F09040080E
:100540007448F0904004E4F09040017402F090434D
:10055000A2E0FFEF4401FF9043A2EFF02275930069
:1005600078007583467582E8E04401F0009046EC1F
:10057000E0F99046FAE0FAB903225420B40012B828
:10058000001AEA901FFFF07401901FFEF09046F6EB
:10059000F0901FFEE06005901FFFE0FA90480074A5
:1005A000C0F075810C90000078007920E4F0A3D8A9
:1005B000FCD9FAEA90004DF0020011750B1F750C82
:1005C000FD1206FD1202FC02060502064AE493A390
:1005D000F8E493A34003F68001F208DFF48029E4F5
:1005E00093A3F85407240CC8C333C4540F4420C841
:1005F000834004F456800146F6DFE4800B010204D8
:1006000008102040809008F0E47E019360BCA3FFB6
:10061000543F30E509541FFEE493A360010ECF540C
:10062000C025E060A840B8E493A3FAE493A3F8E4FB
:1006300093A3C8C582C8CAC583CAF0A3C8C582C867
:10064000CAC583CADFE9DEE780BED2AF9044F47446
:10065000FDF0900060E4F012096412098E900060D1
:10066000E0FFEF120245067C00068E0106A402069A
:10067000B60306CC0406DF050000065D7F01120705
:10068000B57F0012083B9000607401F080CF9000AD
:100690005FE0FFEFB408C690005FE4F09000607484
:1006A00002F080B97F011207B57F0112083B90006C
:1006B000607403F080A790005FE0FFEFB4029E90AB
:1006C000005FE4F09000607404F080917F001207F6
:1006D000B57F0112083B9000607405F002065D9042
:1006E000005FE0FFEF6404600302065D90005FE4DA
:1006F000F0900060E4F002065D02065D2290005278
:10070000E4F0900052E0FFEFD3941F503D90005270
:10071000E0FF7E02EF8EF0A4FFAEF0EF2400FFEECC
:100720003444FEAA06A9077B01C003C002C0017BB6
:10073000FF7A0A793DAC02AD01D001D002D003129C
:1007400009E5900052E004F080B8227B0C7A017930
:10075000CF120A0B900052EFF0900052E0FFEF54DE
:1007600007FF90586EEFF0900052E0FFEFC4540F77
:10077000FFEF540FFF90586FEFF09058767444F0ED
:1007800022758600EF4E6027EF60010E7593009092
:100790000057E0F595A3E0F585A3E0F5848B938AF7
:1007A000838982E0A30586F0A31586DFF6DEF4E4F4
:1007B000F593F59522900052EFF0905130E0FFEF65
:1007C000547FFF900053EFF0900052E0FFEFC433EE
:1007D00033335480FFEF5480FF900053E0FEEF4E20
:1007E000FF905130EFF022EC4D6011ED60010C8B69
:1007F000938A838982E4F0A3DDFCDCFA75930022FE
:10080000EC4D4E700D78FCEF24E950032840FD229A
:1008100000007BF178DA0000EF28FF78FFEE38FE69
:10082000ED38FDEC38FC50E7EF2BFFEE38FEED38ED
:10083000FDEC38FC40F22205020304900052EFF078
:10084000905130E0FFEF54BFFF900053EFF0900065
:1008500052E0FFEFC4333354C0FFEF5440FF900029
:1008600053E0FEEF4EFF905130EFF0227FFE120971
:10087000C37FFE1209D3120979900052EFF0906401
:100880009BE0FFEF4410FFEFF0900052E0FF1209F1
:10089000361209F27F001209B322ACEAADA08B93A5
:1008A0008A838982E0F96017A3E0F5EAA3E0F5A066
:1008B000A3E060F4FAA3E0F8A3E0F2DAF8D9E98D56
:1008C000A08CEAE4F59322C0E0C083C082C085C05A
:1008D00084C086758600C09375930090005FE00425
:1008E000F0D093D086D084D085D082D083D0E0322F
:1008F00041006100440049016E360044004400009C
:100900005DC04100481844004E2EE0000043005AEC
:100910000000004100620000900052EEF0A3EFF0F2
:100920007B027A447900900052E0FEA3E0FFAD071D
:10093000AC061209E522EF54016004D2AF8002C276
:10094000AFEF5402FF9044F4E054FD4FF0229000CA
:1009500052EFF0900052E0FFEFC43354E0FF9044B8
:1009600080EFF022900061E0FFEF700912086C90B8
:1009700000617401F01209FF229044F4E0F844028F
:10098000F0E85402FF10AF012274014FFF22120A57
:100990002A7E087FC71209187F0712094E120A2300
:1009A00022900057EFF0900057E0FF900057EFF0D3
:1009B00080FE22900053EFF0900053E0FF90648B94
:1009C000EFF022900053EFF0900053E0FF90642B83
:1009D000EFF022900053EFF0900053E0FF90640B93
:1009E000EFF0228B938A838982EDF0A3ECF075936C
:1009F0000022120A31EF30E305120A3780F4229008
:100A0000647BE0FFEF4480FFEFF0228B938A8389C1
:100A100082E0759300FF228B938A838982EDF075C3
:100A20009300229044C07401F0229044C87401F0F5
:100A30002290646BE0FF2290644BE0FF2280FE3244
:100A40000051000010005120001000514000300003
:100A500051C000100051F0001001000010000114FE
:100A60000008000140000A00014C00020001500093
:020A7000002064
:00000001FF
